S01800006275696C642F6D6963617A2F6D61696E2E73726563E5
S11300000C9468010C94960A0C94A00A0C94AA0A05
S11300100C94B40A0C94BE0A0C94C80A0C94601391
S11300200C94D20A0C9487010C9487010C947E2AB8
S11300300C941C2C0C94600A0C94760A0C94D60F25
S11300400C944F0A0C9474220C94990C0C94870110
S11300500C94150D0C9487010C9487010C94870162
S11300600C946B0A0C94680E0C94470E0C94520E6C
S11300700C945D0E0C947B0E0C942A0E0C94870148
S11300800C943C0E0C9487010C94870115234B238C
S11300907E23D623142460240B2517256825832565
S11300A08925C2257D26A026B426B726E026FF2270
S11300B0DD27F127DE28A129A429B529B729BA29E2
S11300C0DF2905232C2A3A2A0D230000211042207F
S11300D063308440A550C660E770088129914AA125
S11300E06BB18CC1ADD1CEE1EFF13112100273329C
S11300F05222B5529442F772D662399318837BB375
S11301005AA3BDD39CC3FFF3DEE36224433420042B
S11301100114E664C774A44485546AA54BB52885C4
S11301200995EEE5CFF5ACC58DD55336722611167B
S11301303006D776F6669556B4465BB77AA7199714
S11301403887DFF7FEE79DD7BCC7C448E558866803
S1130150A7784008611802282338CCC9EDD98EE964
S1130160AFF9488969990AA92BB9F55AD44AB77ADB
S1130170966A711A500A333A122AFDDBDCCBBFFBB4
S11301809EEB799B588B3BBB1AABA66C877CE44CEB
S1130190C55C222C033C600C411CAEED8FFDECCD04
S11301A0CDDD2AAD0BBD688D499D977EB66ED55EBB
S11301B0F44E133E322E511E700E9FFFBEEFDDDF54
S11301C0FCCF1BBF3AAF599F788F8891A981CAB1E0
S11301D0EBA10CD12DC14EF16FE18010A100C23012
S11301E0E3200450254046706760B9839893FBA3CD
S11301F0DAB33DC31CD37FE35EF3B1029012F32262
S1130200D2323542145277625672EAB5CBA5A8951C
S113021089856EF54FE52CD50DC5E234C324A014B1
S113022081046674476424540544DBA7FAB79987AC
S1130230B8975FE77EF71DC73CD7D326F236910601
S1130240B01657667676154634564CD96DC90EF9F4
S11302502FE9C899E9898AB9ABA944586548067851
S11302602768C018E1088238A3287DCB5CDB3FEB0C
S11302701EFBF98BD89BBBAB9ABB754A545A376AA1
S1130280167AF10AD01AB32A923A2EFD0FED6CDDDC
S11302904DCDAABD8BADE89DC98D267C076C645CF1
S11302A0454CA23C832CE01CC10C1FEF3EFF5DCFEC
S11302B07CDF9BAFBABFD98FF89F176E367E554E41
S11302C0745E932EB23ED10EF01E00081C1814105A
S11302D011241FBECFEFD0E1DEBFCDBF11E0A0E0FF
S11302E0B1E0E0E6F4E600E00BBF02C007900D9237
S11302F0AA31B107D9F71AE0AAE1B1E001C01D9211
S1130300A934B107E1F70E94AA2C0C942F320C9463
S113031000008FB7F894992708958FBF0895FC01C2
S113032082819927582F442781819927482B592B5B
S1130330CA01892F9927869586958370907082309B
S1130340910559F08330910559F0892B19F420E077
S113035030E008C02CE93FEF05C022E030E002C0E5
S113036028E030E0CA0184E0989F812D9927112468
S11303708230910559F08330910559F0892B19F495
S113038080E090E008C08CE99FEF05C082E090E037
S113039002C088E090E0280F391F2A5F3F4FCF0149
S11303A0820F931F0895282F9FB7F894662349F06E
S11303B0E82FFF27ED55FB4F8081882311F021E0C2
S11303C006C0E22FFF27ED55FB4F608320E0892F05
S11303D099278FBF822F99270895E82F8FB7F89414
S11303E0282F332790E0FF27ED55FB4F8081861798
S11303F009F491E02FBF892F99270895882311F0DC
S11304006E9A08956E980895882311F06F9A08954E
S11304106F98089580E00E94FE01BA9ABB98B99A39
S1130420B89A6C9A80E00E9404026B986A9881E002
S11304300E94FE01709A8DB18C7F8DB90895282F8A
S11304409FB7F894E82FFF27EE54FE4F80818F3F2B
S113045081F4E0912B0AE21771F40BC02093C207D8
S113046004C0FF27EE54FE4F208320932B0A20E084
S113047007C025E005C08091C2078F3F91F7EECFFA
S1130480892F99278FBF822F992708951F93182F9B
S113049081E00E94FE011FB9779BFECF8FB199279F
S11304A01F9108958F929F92AF92BF92CF92DF9245
S11304B0EF92FF920F931F93CF93DF938FB7F8942C
S11304C09927C0901B08D0901C0880901904909024
S11304D01A04C091FB02D091FC0220915B0130917F
S11304E05C01EAE0AE2EB12CAC0EBD1E2A153B0514
S11304F008F459018FBF7401EC0EFD1E86010C0F28
S11305001D1F14C0C114D10419F0F801808101C069
S113051080E00E9446028114910411F0F701808367
S113052021960894E11CF11C0F5F1F4FC501019730
S1130530C817D90738F381E00E9404029FB7F894E2
S1130540C114D10431F0CC0EDD1EF60180818FB9C7
S113055001C01FB8D093FC02C093FB02892F9927D6
S11305608FBF80E090E0DF91CF911F910F91FF90BA
S1130570EF90DF90CF90BF90AF909F908F900895B1
S11305802FB7F894332750935C0140935B01909309
S11305901C0880931B0870931A046093190410922A
S11305A0FC021092FB022FBF452B29F08FB10E9451
S11305B05202992708958CE00E941F0280E090E087
S11305C008958FB7F89499271092A5048FBF0895C2
S11305D08091A8049927382F22278091A90499276C
S11305E0282B392B2115310559F080910001909168
S11305F001012817390721F48091AA0480931A0174
S11306000895DA98D998D898809183038D7F809340
S113061083030895AC012091EE012A3018F081E0A3
S113062090E008958091AE01682F620F712D711DC5
S1130630FB016A30710508F03A97EE0FFF1FE6538D
S1130640F84F518340832F5F2093EE0180E090E0C8
S113065008951F931FB7F89480911F08882341F4CD
S113066085E10E941F02882319F481E080931F080A
S1130670812F99278FBF1F910895382FFA01422F98
S11306802D3118F082E090E008956683872F992732
S113069085833387218780913A0190913B01892B8F
S11306A019F085E090E008952FB7F894332785E09A
S11306B080933D0110923E01F0933901E09338019B
S11306C082E090E090933B0180933A0110924001C4
S11306D010923F01445F40933C012FBF8FB7F894C1
S11306E0282F3327809181048A3011F42FBF19C039
S11306F02FBF9FB7F8948091B502882311F020E0B2
S113070006C081E08093B5021092B60221E0892FE1
S113071099278FBF222329F00E94290380E090E0CB
S1130720089510923B0110923A0181E090E00895FF
S1130730809181048A3021F480914702843021F031
S113074081E080933501089587E10E941F02109291
S1130750350108952FB7F89433278CB95E9A2FBFCB
S11307600895FC016115710519F481E090E0089584
S11307708091AD029091AE02892B19F085E090E052
S113078008957093650760936407F093AE02E09355
S1130790AD0210927D0210927C0281E080937E0271
S11307A05E9A569A808121E030E030937D02209356
S11307B07C020E94AA0380E090E008958FB7F89429
S11307C09927209146012E7F209346012EE72093FE
S11307D0D4018FBF61E070E084ED91E00E94B10329
S11307E0992708951F93CF93DF938FB7F8941092AE
S11307F01F082091810440E0283009F441E030E0F2
S1130800293009F431E0442311F4332351F01092D8
S11308108104E0917A03FF27EE0FFF1FED54FD4F93
S1130820108299278FBF442311F4332331F19FB7EA
S1130830F8948091C9078F5F8093C9078091A202C1
S1130840833479F42091F4028091F302821779F0D1
S1130850822F8F5F8093F402863048F01092F40266
S113086006C0A0E0442309F4A1E071E002C0A0E0C6
S113087070E0892F99278FBF06C0222311F010E062
S11308806CC0A0E070E08FB7F894992720913501EF
S11308908FBF222341F08FB7F89499272AE0209341
S11308A081048FBF42C08FB7F89499276091B30237
S11308B04091B5028FBF8FB7F894282F332750E0AB
S11308C09091F3028091F402981709F451E02FBF3C
S11308D0552341F5662331F55FB7F89482E08093A0
S11308E0B3028FB7F894282F332740E09091F30296
S11308F08091F402981709F441E02FBF442311F0CA
S113090080E006C0E091F402FF27ED50FD4F8281A4
S11309108093B40283E48093A20210927A03852F19
S113092099270EC04150423010F010E00BC08FB731
S1130930F894992725E42093A20221E020937A03D6
S11309408FBF11E0772349F08FB7F8949927A093CC
S11309503E018FBF89E10E941F028FB7F894C82F10
S1130960DD27809181048A3021F40E949803CFBF4F
S11309701DC0CFBF1123D1F02FB7F89433271092A5
S1130980460A1092450A10929A0281E080938104EB
S11309902FBF0E94DE03882349F08FB7F89499276C
S11309A029E0209381048FBF0E942903DF91CF9116
S11309B01F910895AC01ECE0F3E080E090E09C012D
S11309C0858180FF05C0808191818417950741F05E
S11309D0C90101963B968A30910589F72FEF30E0E3
S11309E0C90108950E94DA048F3F91F099272BE002
S11309F030E0829FF001839FF00D929FF00D11244F
S1130A00E45FFC4F858181FF03C087819085089551
S1130A108FEF9FEF08950E94DA048F3F19F481E06D
S1130A2090E00895282F33278BE090E0289FF00171
S1130A30299FF00D389FF00D1124E45FFC4F858150
S1130A408860858380E090E008952F923F924F92D2
S1130A505F926F927F928F929F92AF92BF92CF924A
S1130A60DF92EF92FF920F931F93CF93DF93CDB753
S1130A70DEB729970FB6F894DEBF0FBECDBF6FB7B0
S1130A806983F894209091023090920240909302EE
S1130A90509094026624772488249EE4A92E83E847
S1130AA0B82ECC24DD24EE24FF2400E010E0222D17
S1130AB0332D442D552D662D772D882D90E00E94E1
S1130AC0E62F2A833B834C835D836E837F838887F1
S1130AD09987822E932EA42EB52E2401350100E28F
S1130AE00E94E430A22EB32EC42ED52EA30192016F
S1130AF056954795379527952A0D3B1D4C1D5D1D31
S1130B0057FF05C05F772F5F3F4F4F4F5F4F2093D5
S1130B109102309392024093930250939402E9819C
S1130B208E2F99278FBFCA01B90129960FB6F89461
S1130B30DEBF0FBECDBFDF91CF911F910F91FF900C
S1130B40EF90DF90CF90BF90AF909F908F907F9069
S1130B506F905F904F903F902F9008957FB7F894D7
S1130B6062B7209193013091940140919501509185
S1130B70960106B601FE0FC081B792B7280F311D4A
S1130B80411D511D2F5F3F4F4F4F5F4F290F311DA7
S1130B90411D511D04C0260F311D411D511D872FBC
S1130BA099278FBFCA01B90108959C016E5F6D3109
S1130BB018F080E090E008950C9611F0C9010E96AB
S1130BC00895FC0180899927982F88272189332744
S1130BD0822B932B0895FC0127813085C90143E0C2
S1130BE0880F991F4A95E1F7820F931F860F971F6D
S1130BF06AE070E00E94AF31708767830895FC015A
S1130C0061859285662329F48AE0989FB0011124B6
S1130C1009C077278AE0989FC00111240E94C3313C
S1130C2011861286CF010E94EB05089580912C0154
S1130C30E82FFF27EE0FFF1FE45CF84F0190F081CF
S1130C40E02D20912E01222351F08F5F80932C01FF
S1130C508D3011F410922C01215020932E01CF01DC
S1130C600895FC0180899927982F882721893327A3
S1130C70822B932B0895AF92BF92DF92EF92FF9253
S1130C800F931F93CF93DF935C01D0909701F09063
S1130C90F102EE2425C00F2D03701127C5010E9417
S1130CA03106F801EE0FFF1FEE0FFF1FE00FF11FDB
S1130CB0EB52FE4F208131818217930779F4D501DD
S1130CC01C96ED019E818281891741F4998184816A
S1130CD0891721F49F818381891721F0E394F39488
S1130CE0ED14C9F68E2D9927DF91CF911F910F91A5
S1130CF0FF90EF90DF90BF90AF900895AC012091EA
S1130D00EE022C3018F081E090E008958091960274
S1130D10682F620F712D711DFB016C30710508F095
S1130D203C97EE0FFF1FEC57FB4F518340832F5F1F
S1130D302093EE0280E090E00895AC012091ED0252
S1130D402C3018F081E090E008958091E007682F3E
S1130D50620F712D711DFB016C30710508F03C9719
S1130D60EE0FFF1FE35DF54F518340832F5F209308
S1130D70ED0280E090E008950F931F93CF93DF93EB
S1130D80EC01892BE9F020915C0730915D078FEF2E
S1130D902F3F3807A9F080919801813019F4198206
S1130DA018820BC000915E0710915F07C9010E9471
S1130DB0F204080F191F1983088380E090E002C031
S1130DC081E090E0DF91CF911F910F9108959C01F4
S1130DD0685F6D3118F080E090E008950C9611F092
S1130DE0C901449608958FB7F89499272BB334E03A
S1130DF023272BBB8FBF08954FB7F8945527FC01C9
S1130E0023E0F695E7952A95E1F7E15BFB4F8770C0
S1130E10907021E030E002C0220F331F8A95E2F780
S1130E208081822B80834FBF08959BE0899FF001CE
S1130E301124E45FFC4F7183608312821382148255
S1130E4085E085831682108617820895882349F0E9
S1130E50682F772784EC99E00E94C3316B3F7105BA
S1130E6010F06FEF7FEFCB010895CF92DF92FF92E6
S1130E700F931F93CF93DF93282F062F482F5527C7
S1130E808BE090E0489FE001499FD00D589FD00D22
S1130E901124C45FDC4F8D8182FF02C08B7F8D8360
S1130EA08A81302F381B0A838B818F5F8B83332396
S1130EB079F08C81830F81508C833B3048F06881BA
S1130EC07981822F0E9415070A8381E08B836EC08B
S1130ED08BE090E0489FF001499FF00D589FF00D82
S1130EE01124E45FFC4F83812481820F912D911D95
S1130EF003971CF4333008F459C0C080D180CCE08F
S1130F00D3E0888199818C159D0509F049C08D81B4
S1130F10282F332720FF44C06B81FC80F60E21FD6F
S1130F2016C07727882799272AEF30E040E050E061
S1130F300E9484312F2D3327442755270E94D63110
S1130F40DA01C9012E830E94260798878F838D8139
S1130F5082608D830E8189E0089F800111246B815A
S1130F607727882799272AEF30E040E050E00E9455
S1130F7084312F2D3327442755270E94D631C801A9
S1130F80820F911D6AE070E00E94C331CB016E8331
S1130F901B821C820E942607BC01CE010E94EB0525
S1130FA02B9683E0CA37D80709F0ABCFDF91CF91F6
S1130FB01F910F91FF90DF90CF90089580E090E013
S1130FC0E1E1F3E09C01808180FF08C0C901019642
S1130FD03B968A309105B1F72FEF30E0C9010895AF
S1130FE0982FAFEF60E070E040E050E0E1E1F3E023
S1130FF08081282F332720FF0BC021FF09C023FD48
S113100007C0228133812617370710F0A42FB901B6
S11310104F5F5F4F3B964A30510551F7892F99270F
S11310206817790718F48FEF90E008958A2F9927AD
S11310300895AC013091B0018FEF4F3F580711F084
S113104020E012C0832F99270895E22FFF2763E041
S1131050EE0FFF1F6A95E1F7E051FE4F8081918109
S11310608417950719F02F5F231779F7822F992793
S11310700895FC018081448555274F7050709A0172
S1131080220F331F240F351F821B8F509927089579
S11310901F93CF93DF93162FC0E0D0E06AE10E9444
S11310A0D505FC0180818123811711F4C1E0D0E0D2
S11310B0CE01DF91CF911F910895AC0120912E01B3
S11310C02D3018F081E090E0089580912D01E82FF3
S11310D0FF27EE0FFF1FE45CF84F518340838F5FBF
S11310E080932D018D3011F410922D012F5F2093E8
S11310F02E0180E090E0089580E88093AC01109286
S113110046021092DE071092C1071092EC01089576
S1131110CF93DF93FC0115A6DC019E96ED011B82A3
S11311201A82198280E886A7DF91CF9108958FB73C
S1131130F89460910503709106032CB53DB506B68D
S113114002FE04C06F5F7F4F2CB53DB599278FBF5A
S113115088279927CB017727662744275527622BB1
S1131160732B842B952B0895EF92FF920F931F936B
S11311700E9497087B018C012091A3023091A40264
S11311804091A5025091A60280919B0290919C02ED
S1131190A0919D02B0919E02820F931FA41FB51FC0
S11311A0E216F3060407150730F082179307A40725
S11311B0B50758F005C082179307A407B507E0F5F3
S11311C0E816F9060A071B07B8F59C01AD012E19AC
S11311D03F09400B510B213060E8360760E04607B9
S11311E060E0560768F180E090E8A0E0B0E0E80E27
S11311F0F91E0A1F1B1FE092A302F092A40200939F
S1131200A5021093A60280E090E8AFEFBFEFE80ECE
S1131210F91E0A1F1B1F20503048404050402093A5
S11312209B0230939C0240939D0250939E0220E0C7
S113123030E840E050E014C020E030E040E050E00E
S11312408093A3029093A402A093A502B093A60254
S113125010929B0210929C0210929D0210929E0288
S1131260A901B7012CB53DB5C9018E199F09039693
S11312708417950720F0B9016D5F7F4F02C0640F9A
S1131280751F6115710511F461E070E061507040E3
S11312907BBD6ABD80E186BF87B7806187BF1F9130
S11312A00F91FF90EF9008950F931F930FB7F89449
S11312B011276093A3027093A4028093A5029093D4
S11312C0A60220939B0230939C0240939D0250936C
S11312D09E020E94B4080FBF1F910F91089597B703
S11312E09F7D97BF90E296BF882319F08EB58064E6
S11312F002C08EB58F7B8EBD87B7806287BF80E0CA
S113130090E00895DF92EF92FF920F931F938FB7AF
S1131310F894282F3327D22E91B782B746B798175F
S113132011F041FF02C02FBF6AC08091F2028823EE
S1131330E1F10E94AE05E0909F04F090A0040091BA
S1131340A1041091A2042091A8013091A901409117
S1131350AA015091AB016E197F09800B910B6217A2
S113136073078407950720F01092F20271E01EC003
S11313702E0D3F1D401F511F8091930190919401A8
S1131380A0919501B0919601281B390B4A0B5B0B78
S1131390273E31054105510540F4822F223010F0DB
S11313A070E005C070E082E002C070E086EE682F55
S11313B0615000B601FCFDCF82B7681709F46F5F76
S11313C0209193013091940140919501509196019F
S11313D0DA01C9010196A11DB11D860F911DA11D40
S11313E0B11D82179307A407B50710F4622F609507
S11313F061BFDFBE772319F081E00E941F021F91B5
S11314000F91FF90EF90DF900895AFB7F894BB274A
S1131410E1E0E093F20260939F047093A004809350
S1131420A1049093A2042093A8013093A9014093AE
S1131430AA015093AB01AFBF0E9482090895AF92F5
S1131440BF92CF92DF92EF92FF920F931F93CF93AD
S1131450DF93CDB7DEB728970FB6F894DEBF0FBE83
S1131460CDBF20E070E0E0910001F091010132E194
S11314704DE65CE46FE4809101019E2F28960FB63F
S1131480F894DEBF0FBECDBFDF91CF911F910F91B6
S1131490FF90EF90DF90CF90BF90AF9008951F9290
S11314A00F920FB60F9211248F9383B783BF00B6A8
S11314B000FCFDCF8F910F900FBE0F901F901895D9
S11314C078941F920F920FB60F9211240F900FBEB3
S11314D00F901F90189578941F920F920FB60F9249
S11314E011240F900FBE0F901F90189578941F929F
S11314F00F920FB60F9211242F933F938F939F93C4
S11315002FB7F89433278091050390910603019631
S113151090930603809305032FBF9F918F913F9172
S11315202F910F900FBE0F901F9018951F920F923E
S11315300FB60F9211240F900FBE0F901F901895A5
S11315401F920F920FB60F9211240F900FBE0F909F
S11315501F9018951F920F920FB60F9211240F909F
S11315600FBE0F901F9018951F920F920FB60F92F7
S113157011240F900FBE0F901F9018951F920F9279
S11315800FB60F9211240F900FBE0F901F90189555
S11315901F920F920FB60F9211240F900FBE0F904F
S11315A01F9018951F920F920FB60F9211240F904F
S11315B00FBE0F901F901895EAECF0E06927660FB4
S11315C0F11DE60FF11DC895982F802D3196C89511
S11315D090250895982F80914101882389F59923B6
S11315E079F531E0309341018091120180934201F9
S11315F020913601822F81708093AF018091170171
S11316009091180190934401809343018091370194
S11316108093450132273170267EE32FFF27EE0F9A
S1131620FF1FED5EFE4F808191819093180180939E
S11316301701232B209336018AE10E941F0208958B
S11316408091360180FF02C08B7F01C08D7F809323
S1131650360108950F931F93082F162F8091470288
S11316608130D9F0813038F0823009F44AC08330B7
S113167009F028C159C0002309F458C11092580731
S113168010925707109283041092660710928702F3
S1131690109208031092070339C1002309F046C1D0
S11316A080910703909108030E94DC0A9093080339
S11316B08093070382E080934702109366071434F3
S11316C009F000C125C18695869503C08091360135
S11316D08695817009F0F6C080913601992311F046
S11316E0846001C082608093360180913601877ED8
S11316F0886080933601109237018FEF8093120136
S113170015C1002309F0DEC06093870280910703AE
S1131710909108030E94DC0A9093080380930703C6
S113172083E08093470202C1809183048F3F09F4D0
S1131730C9C0002309F461C0823008F4C3C0E09139
S11317405707EE2309F4EBC04E2F4150E42FFF2737
S1131750E95AF84F82819927382F2227442311F41C
S1131760E2E002C0E42FE150FF27E95AF84F8281FA
S11317709927282B392B8091070390910803281768
S1131780390709F09FC080E00E94EA0A309187027D
S11317908091F3022091F402982F9F5F963008F015
S11317A090E0921771F0E82FFF27ED50FD4F328340
S11317B08F5F8093F302863010F01092F3020E9440
S11317C02903109258071092570794E09093470208
S11317D010928304109266071092870210920803F5
S11317E010920703809146018D7F8093460180917A
S11317F03501882309F49AC084C0823008F44EC0AD
S1131800E0915807FF27E95AF84F8281482F55275E
S1131810342F20913601822F869586958695837084
S113182099278130910519F00297F9F40EC0277EAB
S1131830206120933601442311F485E001C080E047
S1131840809337013093120110C0809137018433A3
S113185060F4E0911701F0911801E80FF11D408345
S1131860809137018F5F8093370180915807E82F6B
S1131870FF27E95AF84F62818F5F809358078330BE
S113188010F010925807772780910703909108036E
S11318900E94DC0A90930803809307038091570702
S11318A0E82FFF27E95AF84F12838F5F8093570779
S11318B0833010F010925707809183048F5F8093D8
S11318C0830434C0109258071092570714E0109301
S11318D047021092830410926607109287021092B6
S11318E0080310920703809146018D7F809346017F
S11318F081E00E94EA0A80913501882329F010933F
S113190047020E94980312C0002381F081E009CFAE
S113191080913601982F917080FDD5CED7CE8091DD
S11319205B079927382F222742E01CCF1F910F9184
S113193008951F920F920FB60F9211242F933F9385
S11319404F935F936F937F938F939F93AF93BF93C3
S1131950EF93FF935F9B3DC06CB1E0910903F0915D
S11319600A033097F9F080911D0890911E08E80F42
S1131970F91F6083019690931E0880931D0820919F
S1131980470A3091480A8217930718F110920A0304
S113199010920903809150048330D9F05798109223
S11319A0500417C06E3719F460E081E010C08091D4
S11319B046016D3721F48260809346010AC081FF9D
S11319C005C08D7F8093460180E2682780E00E94F5
S11319D02A0BFF91EF91BF91AF919F918F917F91CE
S11319E06F915F914F913F912F910F900FBE0F9088
S11319F01F901895982F8D57823068F48091460176
S1131A0081608093460180E28927809382048DE778
S1131A108093D40102C09093D40161E070E084ED1E
S1131A2091E00E94B1039927089578941F920F9230
S1131A300FB60F921124FF920F931F932F933F938E
S1131A404F935F936F937F938F939F93AF93BF93C2
S1131A50CF93DF93EF93FF9320917C0230917D022B
S1131A6080916407909165072817390780F4E09105
S1131A70AD02F091AE02E20FF31F80812F5F3F4F62
S1131A8030937D0220937C020E94AA03CDC0109261
S1131A90AE021092AD0210927E025698FFB6F894F0
S1131AA08091460180FF0EC08E7F80934601809115
S1131AB082048093D40161E070E084ED91E00E949F
S1131AC0B103AFC080918104843009F48CC08530A7
S1131AD040F4823021F18330B8F5813009F09CC0A4
S1131AE00DC0863009F48DC0863008F483C0873079
S1131AF009F48EC0883009F08FC091C08091A20291
S1131B000E94FA0C082F83E0809381046091A20262
S1131B108091450A9091460A0E94DC0A10C0809187
S1131B20C9070E94FA0C082F83E080938104609116
S1131B30C9078091450A9091460A0E94DC0A909355
S1131B40460A8093450A66C0E0917A03FF27EE0FA8
S1131B50FF1FEC54FD4F80810E94FA0C082F109156
S1131B607A03C12FDD27FE01EE0FFF1FEC54FD4F5A
S1131B7060818091450A9091460A0E94DC0A909304
S1131B80460A8093450A20919A022F5F20939A0275
S1131B90113039F580913D01E0913801F09139011E
S1131BA0E80FF11DE0818F5F80933D0190913C012E
S1131BB0981730F482E08093B50240E050E002C010
S1131BC04E2F5527DE01AA0FBB1FFD01ED54FD4F1B
S1131BD08081823031F02F3F21F0AC54BD4F4C93C3
S1131BE019C084E012C08091450A0E94FA0C082FA3
S1131BF085E00BC08091460A0E94FA0C082F86E00B
S1131C0004C00E94DE03082F87E08093810402C091
S1131C1088E003C0002329F089E0809381040E94B6
S1131C2029038F2D99278FBFFF91EF91DF91CF91DA
S1131C30BF91AF919F918F917F916F915F914F91E0
S1131C403F912F911F910F91FF900F900FBE0F9016
S1131C501F9018951F920F920FB60F9211248F9315
S1131C6080919B0087FF02C080919C008F910F9010
S1131C700FBE0F901F90189578941F920F920FB675
S1131C800F9211240F900FBE0F901F901895789407
S1131C901F920F920FB60F9211240F900FBE0F9048
S1131CA01F90189578941F920F920FB60F921124DB
S1131CB00F900FBE0F901F90189578941F920F925B
S1131CC00FB60F9211240F900FBE0F901F9018950E
S1131CD078941F920F920FB60F9211248F939F93B3
S1131CE080918000909181009F918F910F900FBE01
S1131CF00F901F90189578941F920F920FB60F9221
S1131D0011242F933F938F939F932FB7F8943327E6
S1131D1080919702909198020196909398028093F3
S1131D2097022FBF9F918F913F912F910F900FBEDC
S1131D300F901F901895EF92FF920F931F937901C4
S1131D408A01633018F043E050E002C0462F552763
S1131D50BC0188EA94E00E947431E0924A01F09256
S1131D604B0100934C0110934D010E94E8021F9116
S1131D700F91FF90EF900895CF93DF9310921E017F
S1131D809091490120E0992309F421E0222361F58F
S1131D9080914701E82FFF27EE0FFF1FEB54FB4F05
S1131DA00190F081E02D222351F48F5F809347014D
S1131DB08A3011F410924701915090934901309761
S1131DC069F0C9EBD2E0DF0184E30D900992815000
S1131DD0E1F7CF010E940A03882319F00E9401034E
S1131DE003C080E00E941F02DF91CF910895EF921B
S1131DF0FF920F931F93CF93DF93182F7B01042F30
S1131E00E82FFF27EE0FFF1FE557F84F11821082CE
S1131E1010921901A0918B07B0918C07109721F0B3
S1131E208091990280FF0EC081E08093190103C064
S1131E308CE10E941F021123C9F4602FC7010E9484
S1131E40BC0E14C0FD01359624813327ED016D814C
S1131E507727762F662781819927682B792BAD0107
S1131E6086810E943D03882331F3E2CFDF91CF9135
S1131E701F910F91FF90EF900895AF92BF92CF9270
S1131E80DF92FF920F931F93CF93DF936C01EC01CA
S1131E908A81882329F4D0921A08C09219087CC038
S1131EA0442309F471C0F601A080B18080919701A8
S1131EB0843009F046C0C5010E943B062091970179
S1131EC0622F0E94A331492F9217D8F5992359F410
S1131ED08091F1029927019664E070E00E94C33179
S1131EE08093F10229C08091F102840F912D911DFC
S1131EF09C0123703070E901CC0FDD1FCC0FDD1F76
S1131F00C20FD31F019664E070E00E94C331FC014C
S1131F10EE0FFF1FEE0FFF1FE80FF91FCB52DE4F2E
S1131F20EB52FE4F85E0019009928150E1F74F5F3B
S1131F30809197014817B8F280919701815080935E
S1131F409701F09097018091F1028F0D912D911DD1
S1131F50837090708C01000F111F000F111F080F68
S1131F60191F0B521E4FC5010E943106E8019983C7
S1131F708883F5013C9686818A8381818C8387815D
S1131F808B83F394F0929701F601808191810E94F2
S1131F907E06C6010E949D06DF91CF911F910F918D
S1131FA0FF90DF90CF90BF90AF9008951F920F9253
S1131FB00FB60F9211242F933F934F935F936F9318
S1131FC07F938F939F93AF93BF93EF93FF9383B7C5
S1131FD083BF00B600FCFDCF81B799270196AA27DD
S1131FE0BB27209193013091940140919501509128
S1131FF09601280F391F4A1F5B1F209393013093CA
S11320009401409395015093960178940E9482091B
S1132010FF91EF91BF91AF919F918F917F916F91BC
S11320205F914F913F912F910F900FBE0F901F9092
S113203018950F931F93CF93DF93182F8FB7F894AE
S1132040C82FDD270C2F61E080E00E94D301882394
S113205021F0CFBF85E090E024C080910501882362
S1132060A1F480912401823081F409C082E080933C
S11320702401109205010E940A02B89AC098109394
S1132080020180E00FBF99270CC0809124018823AE
S113209069F38FB7F89499271092A3048FBF81E056
S11320A0F1CFDF91CF911F910F910895EF920F938C
S11320B01F93AE2D99E0899FF0011124E558FC4F40
S11320C04083518362837383048315832683378318
S11320D0A17080858E7F8A2B8260808782E00E9437
S11320E01F021F910F91EF900895AF92BF92CF926C
S11320F0DF92EF92FF920F931F93F82E5A016B0118
S11321000E94AE05AB01BC01EE24960185018F2D22
S11321100E9456101F910F91FF90EF90DF90CF9087
S1132120BF90AF900895AF92BF92CF92DF92EF929B
S1132130FF920F931F9380910E0190910F01A09134
S11321401001B0911101B695A79597958795809345
S1132150400290934102A0934202B09343020E9432
S11321602505E0904002F090410200914202109156
S11321704302A80197010E94D6315B016C01AE0CA9
S1132180BF1CC01ED11EA0924002B0924102C09258
S11321904202D0924302109256070E94AE05AB0150
S11321A0BC01E1E0EE2E9601850182E00E9456100A
S11321B01F910F91FF90EF90DF90CF90BF90AF9061
S11321C00895CF93DF93EC0180911E01882391F44D
S11321D0483009F055C0A5ECB2E0FB0188E001905D
S11321E00D928150E1F788E08093B40480E00E946E
S11321F01F0246C02091EE012223C9F08091AE0156
S1132200E82FFF27EE0FFF1FE653F84F408151815F
S11322101182108221502093EE018F5F8093AE01D2
S11322208A3011F41092AE014115510519F40E943F
S1132230F30626C0DA011C96FB0188E001900D929A
S11322408150E1F7909149019A30A8F480914801B6
S1132250E82FFF27EE0FFF1FEB54FB4F5183408302
S11322608F5F809348018A3011F4109248019F5F78
S11322709093490105C0CA010E940A030E94010308
S1132280CE01DF91CF9108950F931F93182F0FB7AD
S1132290F89461E080E00E94D301882371F51093E3
S11322A00201809105018823A9F5809124018230DF
S11322B089F58BE00CC00E940A02809124018823D6
S11322C049F481E0809324011092ED018DE00E9495
S11322D01F022AC08091A1028F3F31F5E0910401D1
S11322E0EE2311F11CC01092030104C0FF27EF5527
S11322F0FD4F10821092040117C081E090E002C0EB
S1132300880F991F1A95E2F720912301282B209317
S113231023010AC0809124018823E1F6CCCF809167
S113232003018F3F19F7DFCF802F99278FBF80E0FC
S113233090E01F910F9108951F9383E00E9419105C
S11323409927182F882319F083E00E944411812FC4
S113235099271F910895CF93DF93EC010E941908E8
S1132360282F8091B0012817D1F0382F31503093A5
S1132370B00113C0822F992743E0880F991F4A9513
S1132380E1F7DC01A051BE4FFC01E850FE4F88E0AC
S113239001900D928150E1F72F5F231758F380913C
S11323A05C0790915D078C179D07A1F48FEF9FEF59
S11323B090935D0780935C0710925F0710925E070D
S11323C0109260071092610781E08093340183E1E9
S11323D00E941F02DF91CF910895AF92BF92CF92D6
S11323E0DF92EF92FF920F931F93282F33278BE0F6
S11323F090E0289FF001299FF00D389FF00D1124E3
S1132400E05BFE4F82819381A481B5810097A10591
S1132410B10569F080819181880F991F9183808330
S11324208150944020F080E094E0918380838BE09D
S113243090E0289F5001299FB00C389FB00C1124C4
S113244080E591E0A80EB91EF50186819781A085EB
S1132450B18582839383A483B583C080D180EE2425
S1132460FF24B9E0CC0CDD1CEE1CFF1CBA95D1F79F
S11324700E942505DC01CB01F50100811181B80121
S1132480762F6627770F0E94AF31AA27BB278C0DC2
S11324909D1DAE1DBF1D222733275AE0000F111FBB
S11324A0221F331F5A95D1F7081B190B2A0B3B0B1C
S11324B006831783208731872281338144815581A4
S11324C0280F391F4A1F5B1F22833383448355839C
S11324D01F910F91FF90EF90DF90CF90BF90AF903E
S11324E00895CF92DF92EF92FF920F931F93CF93B1
S11324F0DF938C01F62E6A01E22E8FB7F894C82F71
S1132500DD2760E080E00E94ED01882321F0CFBF49
S113251080E090E01EC0CFBF0F0D111D802F80689A
S11325200E944602F82E16950795802F807C0E9403
S113253046020E2D0AC0EE2DFF27E01BF109EC0D1B
S1132540FD1D80810E94460201500023A1F78F2DBA
S11325509927DF91CF911F910F91FF90EF90DF901A
S1132560CF900895CF93DF93CDB7DEB72C970FB6F6
S1132570F894DEBF0FBECDBF8FB7F894282FAE01FD
S11325804F5F5F4FDA01ECEAF4E088E001900D92CE
S11325908150E1F780918802909189028987892F7F
S11325A099278A878091A7029091A8028B87892F07
S11325B099278C872FBF2CE060E080E691E00E9491
S11325C071122C960FB6F894DEBF0FBECDBFDF910B
S11325D0CF9108951F93CF93DF93182F8FB7F8945B
S11325E0C82FDD2760E080E00E94ED01882321F000
S11325F0CFBF80E090E005C0CFBF812F0E9446028C
S11326009927DF91CF911F910895EF92FF920F9335
S11326101F93CF93DF93182F7B01042F8FB7F89468
S1132620C82FDD2760E080E00E94ED01882321F0BF
S1132630CFBF80E090E014C0CFBF1064812F9927F2
S11326409093B0028093AF020E944602182F402F4D
S11326505527B70180E090E00E94C002812F99279E
S1132660DF91CF911F910F91FF90EF900895C09843
S113267060914E0170914F0141E08FE30E94051378
S1132680089582E090E09093D2018093D10181E09B
S11326908093460220E030E080910201843011F4FE
S11326A021E030E0232B29F484E00E9419108823D0
S11326B019F40E943713089584E00E944411089588
S11326C01F920F920FB60F9211242F933F934F93A3
S11326D05F936F937F938F939F93AF93BF93EF9386
S11326E0FF938091D1019091D201019749F482E046
S11326F090E09093D2018093D1010E94411305C0D0
S11327008091EC018F5F8093EC01FF91EF91BF9179
S1132710AF919F918F917F916F915F914F913F9175
S11327202F910F900FBE0F901F9018951F938091BB
S11327302301882309F04BC0109102011F3F09F0C7
S113274046C060E00E94ED01882309F440C081E0A6
S113275080933A078091B1018823E1F110923A07FE
S113276085E090E045C0923069F5C09A80910301FC
S113277020E030E08F3F11F421E030E0232BE9F436
S1132780109305018F3F19F42FEF30E00DC0282F6F
S11327903327F901EF55FD4F8081809303018F3F6B
S11327A011F41093040110832093ED0181E08093D0
S11327B024018DE00E941F0205C0109305011092B0
S11327C0240111C080912401882369F00FC081E0A5
S11327D090E00EC08091050190912401882319F2A4
S11327E0923021F0EFCF80E00E94FE0180E090E083
S11327F01F9108951F93CF93DF939FB7F894C92F28
S1132800DD271C2F90910201981721F0CFBF81E0A2
S113281090E03AC08FEF809302013091230133237B
S1132820F1F48FB7F89499271092A3048FBF0E94F4
S11328309613CFBF11C02093020181E090E002C043
S1132840880F991F4A95E2F7809538233093230126
S11328508BE00E941F021FBF80E090E015C080E063
S113286065E0E32FFF270E94A331292F492F552725
S1132870CF01042E02C0959587950A94E2F780FD56
S1132880DACF822F8F5FEFCFDF91CF911F91089521
S11328901F93CF93DF938FB7F894C82FDD271C2F96
S11328A08091D1019091D201892B29F484E00E9476
S11328B0FA13CFBF1EC0109246028091EC01882308
S11328C011F0B79904C00E9908C0882319F08150FB
S11328D08093EC010E9441130BC081E090E090933F
S11328E0D2018093D1011092EC0184E00E94FA138A
S11328F01FBFDF91CF911F9108950E947C08C09A59
S1132900C09888E00E94EA1288E00E94EA12C09A05
S113291084E00E94FA130E9448140895FF920F93D2
S11329201F93CF93DF93F82E8B018FB7F894C82FA2
S1132930DD2760E080E00E94ED01882321F0CFBF15
S113294080E090E00CC0CFBF8F2D0E944602812F03
S113295099270E944602802F0E9446029927DF9100
S1132960CF911F910F91FF9008951F931FB7F89473
S11329708091EB01882319F460E070E009C060E005
S113298080911808882309F461E081E0682777279B
S113299080918E02882319F480E090E00AC090E0D0
S11329A08091AB04882309F491E081E09827892F72
S11329B09927762F6627770F770F770FE4E0880F34
S11329C0991FEA95E1F7826E9262682B792B81E177
S11329D00E948E14812F99278FBF1F9108958FB75E
S11329E0F89499276091C9048FBF85E0689FB0016E
S11329F01124625D7E4F706488E10E948E140895F4
S1132A00EF92FF921F93CF93DF93E0908F02F090A9
S1132A109002F70182A59927182F882309F41FE152
S1132A20C0988091EA01811749F0612F77276F716F
S1132A307070606E706885E10E948E141093EA01D4
S1132A40F70110818FB7F894C82FDD2760E080E08C
S1132A500E94ED01882311F0CFBF12C0CFBF8EE3D7
S1132A6090E09093B0028093AF028EE30E944602FE
S1132A701150412F552760E070E0C7010E94C00249
S1132A80DF91CF911F91FF90EF9008950F931F93C3
S1132A90CF93DF93EC010FB7F89411270E948F01B5
S1132AA0FC018FE380830FBF1092E2071092E107CD
S1132AB061E082E00E94D301882319F085E090E070
S1132AC072C080913B078F5F80933B0781508B835B
S1132AD08FB7F894082F112762E081E00E94ED017E
S1132AE0882329F40FBF0E94E10281E05BC08FB705
S1132AF0F894992724E02093A4048FBFD093F00284
S1132B00C093EF020FBFFE0131968181298199277D
S1132B10982F88273327822B932B80729C7C898360
S1132B20892F992781832981982F88273327216426
S1132B30822B932B8983892F992781831CA618A61E
S1132B4019A619AA18AA1FA680E88EA761E06093A7
S1132B50A7044091EF025091F0028FB7F894282F08
S1132B60332780912501909126018830910511F039
S1132B70019711F02FBF15C082E090E090932601D9
S1132B808093250160932C0A5093900240938F0206
S1132B90109291012FBF0E949C11882311F40E946E
S1132BA0001580E09927DF91CF911F910F9108952F
S1132BB0CF93DF93DA01422F2D3118F082E090E0B9
S1132BC05EC0ED018B876E83872F99278F832FB784
S1132BD0F894332780918802909189022FBFFD01D8
S1132BE08483892F992785832FB7F894332780917D
S1132BF00601909107012FBF8887892F992789871C
S1132C003196818129819927982F88273327206439
S1132C103868822B932B8983892F99278183435F7B
S1132C204C934D5080910901882359F01092090169
S1132C30642FCD010E9446159927282F8823A9F4D3
S1132C4017C0842F99279093B8028093B702B0934A
S1132C502A01A09329018FE00E941F02809109019B
S1132C60882349F489E090E00AC08FEF809309013A
S1132C70822F992704C01092950280E090E0DF91A2
S1132C80CF9108951F9380910C019927019664E0D8
S1132C9070E00E94C331682F80930C0110E0462F2E
S1132CA05527FA01EE0FFF1FE350FD4FA081B181BC
S1132CB0109799F0E62FE695E695E695FF27E15201
S1132CC0F84F808199279A012770307002C095953A
S1132CD087952A95E2F780FF0DC0CA01019664E04A
S1132CE070E00E94C331682F1F5F1430C1F6109347
S1132CF00C0119C060930C016430A8F42C912D5080
S1132D003327FD0167817727762F662786819927E8
S1132D10682B792BAD0183850E94D815882319F07F
S1132D2082E10E941F021F910895CF93DF93582FD1
S1132D30FB01843018F081E090E033C0C82FDD2718
S1132D40CC0FDD1FC350DD4F88819981892B19F089
S1132D5085E090E026C079836883435F40834D50CB
S1132D6080910C01843018F480E090E01AC08385CF
S1132D7067817727762F662726813327622B732B6B
S1132D8050930C01242FAF010E94D8159927282FA6
S1132D90882329F084E080930C0119821882822F01
S1132DA09927DF91CF910895AF92BF92CF92DF928E
S1132DB0EF92FF920F931F93BC018091A701882388
S1132DC009F479C080914502882309F074C081E038
S1132DD08093450260936A01872F99278093690144
S1132DE082E16433780721F0AA24BB24650108C07A
S1132DF0A0904A01B0904B01C0904C01D0904D017D
S1132E00A0926E0111270D2DFC2CEB2CE0926D018C
S1132E1096014427552720936C018D2D9927AA27C5
S1132E20BB27E9E6F1E08283FF2400271127102F56
S1132E300F2DFE2CEE24B82FAA2799278827332795
S1132E4044275527A90133272227822B932BA42B10
S1132E50B52B2A2D332744275527822B932BA42BBC
S1132E60B52BE82AF92A0A2B1B2BE114F1040105DE
S1132E70110511F410E010C06453724121F413E001
S1132E8068EA74E003C010E060E070E0412F552769
S1132E908FE691E00E9474318FEF809363018093F9
S1132EA0640180E6809368011A5F412F6DE571E04B
S1132EB082E00E9495161F910F91FF90EF90DF9092
S1132EC0CF90BF90AF900895CF93DF93282FDB016D
S1132ED080912B0181FD03C084E090E04DC0453119
S1132EE018F082E090E048C04B5E4C93FB013C96A6
S1132EF08091000190910101EB01898B892F992721
S1132F00888B8091AD018F5F8093AD018150868362
S1132F10C22FDD27222311F483E901C080E08783D7
S1132F201182FE01EE0FFF1FE75EF74F0190F08163
S1132F30E02D309719F485E090E01EC0B183A083A2
S1132F4022838EE18383CF010E945D08882319F0D8
S1132F5081E090E011C080912B0182FF05C084FDC7
S1132F6003C080E10E941F02CC0FDD1FC75ED74F54
S1132F701982188280E090E0DF91CF9108951F9329
S1132F80182F81E090E09093260180932501109200
S1132F90B1010E9496138FB7F894992710931F01DB
S1132FA08FBF87E00E941F021F910895AF92BF92C6
S1132FB0CF92DF92EF920F931F935B016C010E94FB
S1132FC0AE05AB01BC01E1E0EE2E9601850184E083
S1132FD00E9456101F910F91EF90DF90CF90BF90F9
S1132FE0AF900895CF92DF92EF92FF920F931F93C9
S1132FF06C017B010E942505DC01CB01B6010E9416
S1133000AF31E80EF91E00271127C801B7010E944D
S1133010D6171F910F91FF90EF90DF90CF900895F6
S11330200F931F93CF93DF93EC01E0912C01FF27C3
S1133030EE0FFF1FE45CF84F00811181662329F035
S11330406CE170E08CE190E02FC080912B0183FF54
S11330503DC08CA58823D1F58F819927982F882787
S11330602E813327822B932B0E94DA04982F8F3FD3
S113307071F08BE0989FF0011124E45FFC4F82858E
S11330808F5F8287853018F0CF010E94FF0583E1AE
S11330900E941F02F801838181508383882339F0C1
S11330A067E070E087E090E00E94F2173FC00E9462
S11330B0160680912B018F7E80932B0167E070E0D0
S11330C087E090E00E94F21740E02CC00E941606B0
S11330D080912B018F7E80932B0167E070E087E065
S11330E090E00E94F2178F819927982F88272E81CC
S11330F03327822B932B0E94DA04982F8F3F89F079
S11331008BE0989FF0011124E45FFC4F81858F5F71
S1133110818782858F5F8287853018F0CF010E9476
S1133120FF0541E0BE01C8010E943D0FDF91CF9130
S11331301F910F910895282FCB01213059F0213090
S113314028F0223089F02330A1F411C0642F0E94AA
S1133150101808956854724061F4809133018823F3
S113316041F010923301089510924502089510928F
S1133170450208950F931F93CF93DF93042F10916B
S11331800C011430A0F4E12FFF27EE0FFF1FE350D2
S1133190FD4FC081D181C617D70749F4118210822F
S11331A00E944216402FBE01812F0E949B18DF917E
S11331B0CF911F910F910895AF92BF92CF92DF925A
S11331C0EF92FF920F931F930E94AE057B018C0137
S11331D06091A8037091A9038091AA039091AB0315
S11331E0A0905201B0905301C0905401D090550169
S11331F0A114B104C104D10409F44EC0EFB7F8948A
S113320020914F0420FD36C0A8019701261B370BDF
S1133210480B590B2A153B054C055D05C8F4A21A49
S1133220B30AC40AD50A8091520190915301A09126
S11332305401B0915501821B930BA40BB50B8093E1
S1133240520190935301A0935401B093550115C0BA
S113325081E090E0A0E0B0E08093520190935301AC
S1133260A0935401B093550121E0A22EB12CC12C9E
S1133270D12C03C02E7F20934F048E2F99278FBF0C
S11332800E94AE05AB01BC0191E0E92E96018501D7
S113329085E00E94561005C08091B0038D7F809315
S11332A0B0031F910F91FF90EF90DF90CF90BF90EC
S11332B0AF900895FF920F931F93CF93DF93F82E4F
S11332C0282F33278BE090E0289FE001299FD00D21
S11332D0389FD00D1124C05BDE4F81E090E09983CC
S11332E088831A868A819B81AC81BD810097A10560
S11332F0B105A1F00FB7F8941127C9010E94FC068B
S11333000FBF1A821B821C821D821E821F82188696
S113331019868F2D0E94ED110E94DC18DF91CF9148
S11333201F910F91FF9008952F923F924F925F92B9
S11333306F927F928F929F92AF92BF92CF92DF92C1
S1133340EF92FF920F931F93CF93DF93CDB7DEB726
S1133350AA970FB6F894DEBF0FBECDBFA0914E0161
S1133360B0914F01FC909D012F0D311DF901808119
S1133370881F8827881FFD0183A7F90180818F7723
S1133380FD0181A721503040F9018081FD0180A712
S1133390A0914E01B0914F01FD0132818FB7F89495
S11333A099272091EB018FBF222309F490C0832F2A
S11333B09927969587959695879583709070823016
S11333C0910541F5878146812FB7F89433276091A1
S11333D0A7027091A8022FBF9927982F88275527F5
S11333E0842B952B8617970719F481E090E06CC025
S11333F0FD018781268140E050E09927982F882796
S11334003327822B932B8F5F9F4F11F441E050E0C1
S1133410CA015AC0039709F010C59E012D5F3F4FA2
S11334204CEA54E088E0FA010190AF01F9010192FD
S11334309F018150C1F79E012D5D3F4FAE014D5F4D
S11334405F4F88E0FA010190AF01F90101929F01F9
S11334508150C1F79E01255F3F4FAE014D5D5F4F27
S113346088E0FA010190AF01F90101929F018150B6
S1133470C1F79E012D5E3F4FAE01455F5F4F88E06F
S1133480FA010190AF01F90101929F018150C1F746
S11334909E01255E3F4FAE014D5E5F4F88E0FA010D
S11334A00190AF01F90101929F018150C1F748E0F9
S11334B050E0BE01655E7F4FCD0106960E946731E4
S11334C0892B09F0BAC403C0882309F4B6C4FCE00C
S11334D0FF1508F0B2C4C0904E01D0904F01F60120
S11334E02281822F9927F6E096958795FA95E1F740
S11334F0039719F468E070E002C062E070E0822F84
S113350099279695879596958795837090700397DC
S113351019F488E090E002C082E090E026E030E018
S1133520C20ED31E40E050E020E030E0F601E80F88
S1133530F91F8AEF9FEFC80ED91E05C08191480F6D
S1133540511D2F5F3F4F26173707C4F3F6016381E0
S11335508FEF8093E3078FB7F894782F20E030E063
S1133560E9E9F1E0808191818417950731F4828142
S1133570861709F430C42093E3072F5F3F4F339637
S11335802430310579F77FBF9091E3073FB7F89472
S11335909F3F21F080912801891799F420912801F7
S11335A0822F9927FC01EE0FFF1FE80FF91FE75642
S11335B0FE4F5183408362832F5F23702093280141
S11335C00CC0892F9927FC01EE0FFF1FE80FF91F8C
S11335D0E756FE4F518340836283832F99278FBF21
S11335E00FB7F8941127C6010E948F01FC01908146
S11335F00FBFF60183A5882309F402C49F3309F0A1
S1133600FFC3878146812FB7F89433276091060161
S1133610709107012FBF9927982F88275527842B4E
S1133620952B8617970761F0878126819927982F14
S113363088273327822B932B8F5F9F4F09F0E5C395
S11336406F2D6D50BCE06B2E712C6C0C7D1CF60143
S113365083859927803709F4CAC0813730F48036CE
S113366041F0813609F0CCC399C0813709F0C8C351
S1133670A7C2F601848525859927382E222433276D
S1133680222A332A2685778590895188F4E32F16D8
S1133690F2E13F0621F088249924540108C0809067
S11336A04A0190904B01A0904C01B0904D01809143
S11336B0A701882309F4A4C3892F9927AA27BB2724
S11336C0EE24F82E092F1A2F332744275527522F7B
S11336D0442733272227872F9927AA27BB27DC01D2
S11336E099278827282B392B4A2B5B2B852D992743
S11336F0AA27BB27282B392B4A2B5B2BE22AF32A38
S1133700042B152B81149104A104B10461F4E11478
S1133710F10401051105A1F124E3221622E1320688
S113372009F06EC31DC0E114F1040105110539F45B
S113373034E3231632E1330609F062C318C0D8011A
S1133740C70188199909AA09BB09181619061A0686
S11337501B068CF444E3241642E1340609F050C3FA
S11337606650A8019701C30106960E949B0E80E053
S11337700E945A1945C3E814F9040A051B0561F4AB
S113378084E3281682E1380609F03AC380915A018D
S11337908F5F80935A0134C3C10126C08091A70171
S11337A0882309F42DC3F601848525859927982F4C
S11337B088273327822B932B8453924109F020C30B
S11337C080914A0190914B01A0914C01B0914D011F
S11337D00097A105B10509F413C3F301808199276A
S11337E0982F8827822B932B0E94D41609C3F601A5
S11337F0878126819927982F88273327822B932B1B
S11338008F5F9F4F09F0EAC0F601818520859927D3
S1133810F82EEE243327E22AF32AC7010E94DA04A1
S11338208F3F21F0F601658577271CC00E94DE07D3
S1133830182F8F3FD1F0B7010E941507F601458577
S1133840212F33278BE090E0289FF001299FF00D72
S1133850389FF00D1124E45FFC4F4283F601658527
S11338607727812F0E943507B9C081E40E94F007B1
S1133870182F8F3FA1F0282F33278BE090E0289F4B
S1133880F001299FF00D389FF00D1124E45FFC4FE7
S1133890808191810E94AB11B701812F9DC090E07E
S11338A0F60181A58A3608F091E0992309F496C0BF
S11338B0C6010E943908182F682FC6010E94D50539
S11338C0DC01F6018385803709F088C0153009F0E2
S11338D097C2FD01818122819927982F8827332758
S11338E0822B932B8F5F9F4F09F49EC2FD0183812E
S11338F024819927582F44273327422B532B4115D2
S1133900510521F18091B001082F112760915C07C6
S113391070915D07A0E020E030E0E0EFF1E00EC040
S1133920808191818617970731F0848195814817AA
S1133930590708F4A1E02F5F3F4F3896201731074D
S113394014F4AA2369F3AA2309F469C210E0E1E19B
S1133950F3E08081992780FF04C083FD02C081FFCA
S11339601F5F3B9623E0EF37F20799F71123B1F17C
S11339700E942505DC01CB01612F77270E94AF311E
S113398000E010E0E1E1F3E09081992349F0292F70
S1133990332723FD05C021FD03C081508F3F39F03B
S11339A00F5F1F4F3B960A30110571F717C0202F88
S11339B00F3FA1F033278BE090E0289FF001299F6F
S11339C0F00D389FF00D1124E45FFC4F808191814C
S11339D00E94AB11B701802F0E941507C6010E94F7
S11339E03908182F682FC6010E94D5057C011530AF
S11339F009F006C2F6011185908460E4C6010E94B4
S1133A004808382E57010894A11CB11CF701818184
S1133A1025010894411C511CF50121819927982FF7
S1133A2088273327822B932B8F5F9F4F09F4C0C0C5
S1133A30812F9927182F0027892D9927082B192BB7
S1133A4063E0862E912C8E0C9F1CF701838154E039
S1133A50652E712C6E0C7F1C24819927982F882742
S1133A603327822B932B892B51F5C8010E94DA044A
S1133A708F3F11F50E94DE078F3F11F0B8011AC085
S1133A808AE00E94F007F82EFFEF8F17A9F0282F85
S1133A9033278BE090E0289FF001299FF00D389F99
S1133AA0F00D1124E45FFC4F808191810E94AB11E1
S1133AB0B8018F2D0E941507C8010E940B05F4015F
S1133AC09080F3018080F501B080F201A080C801EC
S1133AD00E94F2047C01C8010E941908482F8A3010
S1133AE009F43FC0892D9927782F6627882D9927B7
S1133AF0682B792B8B2D9927382F22278A2D9927EC
S1133B00282B392B8091B0014817D1F4F2E3EF163A
S1133B10F10438F5E42FFF27B3E0EE0FFF1FBA9549
S1133B20E1F7E051FE4F11830083338322837583D1
S1133B30648381E0868317824F5F4093B00111C094
S1133B40E42FFF27A3E0EE0FFF1FAA95E1F7E05152
S1133B50FE4F11830083338322837583648381E062
S1133B60868380910D01882319F5C8010E941908E4
S1133B70E82F8091B001E81748F4FF2773E0EE0FB7
S1133B80FF1F7A95E1F7E051FE4F3782809161077C
S1133B90882311F0332049F080915C0790915D07F0
S1133BA08017910729F4332019F083E10E941F0242
S1133BB060E8C6010E944808882309F421C112C1A3
S1133BC0F601938885858F5F85876D3108F018C16C
S1133BD0C6010E943B0620E090919701891708F4E2
S1133BE021E0222309F00CC110912E01812F992785
S1133BF0E82E8823B9F1C6010E9431065C01F090D9
S1133C002C01F10EFA94EA94FCE0FF1510F0EF2D6C
S1133C1002C0EF2DED50FF27EE0FFF1FE45CF84FBD
S1133C200190F081E02D00811181C8010E943106CC
S1133C308A159B0509F0EEC0F8019289F601828984
S1133C40981709F0E7C0F8019585F601858598175E
S1133C5009F0E0C0F8019389F6018389981709F007
S1133C60D9C0CEC0809198018823A1F0F60180814B
S1133C708551082F1127602FC6010E94E706BC0159
S1133C80F3E99F1609F0BCC0402FC6010E94E11061
S1133C906C01B6C080E02091EE02222309F481E099
S1133CA0882309F0ADC09091ED02992309F481E0D5
S1133CB0882309F0A5C0992309F4A2C08091E007E4
S1133CC0E82FFF27EE0FFF1FE35DF54F0081118101
S1133CD01182108291509093ED028F5F8093E007E0
S1133CE08C3011F41092E0070115110509F488C015
S1133CF0222309F485C080919602E82FFF27EE0F56
S1133D00FF1FEC57FB4FE080F1801182108221509D
S1133D102093EE028F5F809396028C3011F4109200
S1133D209602E114F10409F46BC084E3F7011192E3
S1133D308A95E9F728E230E0C20ED31E8CE0F60142
S1133D4011928A95E9F728ED3FEFC20ED31EF801D0
S1133D50D182C0828FEF82838EE18383C8010E9467
S1133D605D08882389F5CE0101960E94BC0688234C
S1133D7011F5F601868527859927982F88273327FB
S1133D80822B932B29813A8128173907A0F080E8E8
S1133D9090E0A0E0B0E080930E0190930F01A09317
S1133DA01001B09311010E9493106CE170E08CE15A
S1133DB090E00E94F2178091A70381FD03C080E187
S1133DC00E941F0267011CC0C7010E947E06C80131
S1133DD00E949D0615C07FBF13C0F60184858078BC
S1133DE0803871F480E890E0A0E0B0E080930E01A8
S1133DF090930F01A0931001B09311010E949310AE
S1133E00D0924F01C0924E0118C0F60183858137CC
S1133E10B9F7E3CFFA94EE2009F0F5CE23CF65E0AD
S1133E20C6010E94D50507C0C6010E943908682F43
S1133E30C6010E94D5057C01DDCD8FB7F894992782
S1133E40109246028FBF0E944814AA960FB6F894A7
S1133E50DEBF0FBECDBFDF91CF911F910F91FF90B9
S1133E60EF90DF90CF90BF90AF909F908F907F9016
S1133E706F905F904F903F902F900895AF92BF92B4
S1133E80CF92DF92EF92FF920F931F93CF93DF9322
S1133E905B016C01C0E0D0E0EBE7F3E0608561FF1B
S1133EA0E4C02081318142815381E480F580068120
S1133EB01781D601C501821B930BA40BB50B8E157C
S1133EC09F05A007B10708F4D0C060FF03C06D7F51
S1133ED0608708C02E0D3F1D401F511F2083318372
S1133EE042835383C33009F478C0C43030F4CC2304
S1133EF059F0C23009F0BFC011C0C43009F479C010
S1133F00C53009F0B8C07CC080911A01882311F42F
S1133F1083E001C084E00E941F02ADC080913101A2
S1133F20882309F4A8C080913201882309F4A3C02E
S1133F3080915607882349F583E10E941F0284E19A
S1133F400E941F02A0900E01B0900F01C0901001BA
S1133F50D09011018091400290914102A0914202BF
S1133F60B0914302A81AB90ACA0ADB0A81E0809315
S1133F7056070E94AE05AB01BC0131E0E32E960169
S1133F80850182E00E94561076C080910E019091C6
S1133F900F01A0911001B0911101880F991FAA1F60
S1133FA0BB1F80930E0190930F01A0931001B09357
S1133FB011018150904DA740B04060F080E090ED39
S1133FC0A7E0B0E080930E0190930F01A09310013D
S1133FD0B09311010E9493104EC080913101882347
S1133FE009F449C080913201882309F444C083E173
S1133FF092CF80912B018F7E80932B0180E18BCF18
S11340002091AC033091AD034091AE035091AF03C6
S11340108091520190915301A0915401B0915501A6
S11340200097A105B105F1F082179307A407B5071E
S1134030C9F480915A01882361F42FB7F894332787
S113404080910B03816080930B032FBF8EE10E944C
S11340501F0280E090E00E94FC0680E00E94ED11C7
S113406010925A010E94DC1806C021963996C63077
S1134070D10509F013CF82E00E941F02DF91CF9196
S11340801F910F91FF90EF90DF90CF90BF90AF9072
S11340900895CF92DF92EF92FF920F931F93CFB6C2
S11340A0F894DD240E942505DC01CB0166E470E070
S11340B00E94AF314BE0E42EF12CE80EF91EF09291
S11340C0290AE092280A0E94970800271127A801CC
S11340D097010E945409CFBE1F910F91FF90EF905A
S11340E0DF90CF9008951F93CF93DF938FB7F89409
S11340F0C82FDD271C2F8091250190912601089758
S1134100C9F489E00E94EA1283E00E94FA13C09A7B
S113411081E090E090932601809325018FB7F89475
S1134120992723E020931F018FBF87E00E941F027D
S1134130CFBF30C0C09880912C0A882311F085E04D
S113414001C084E00E94EA1283FD09C080E00E945D
S1134150EA1283FF04C085E090E020E003C083E01E
S113416090E021E09093260180932501C09A1FBF1F
S1134170222341F01092910183E00E94FA130E94DD
S1134180492008C00E94970820E431E040E050E054
S11341900E945409DF91CF911F910895EF92FF92ED
S11341A00F931F93CF93DF938B018091AF02909174
S11341B0B00286FF40C18F7B8F3309F08EC1C0915E
S11341C04E01D0914F0158815093D3018091D10178
S11341D09091D2018530910509F443C08630910550
S11341E009F48AC0029709F01FC185E090E090931A
S11341F0D2018093D1014091AC01852F992701967A
S1134200242F3327281739074CF1B79906C00E9984
S113421004C0451B41504093AC014091D3014A3244
S1134220E8F44423A1F0BE016F5F7F4F483018F0DB
S113423047E050E007C086E090E09093D20180937D
S1134240D101552780E090E00E94C00246C110923F
S11342504602C09A84E00E94FA13E3C00E947D14CF
S11342603CC186E090E09093D2018093D10180918B
S11342708E02882309F439C08091AB048823A9F500
S1134280898185FF32C08F814E812FB7F8943327FF
S11342906091A7027091A8022FBF9927982F8827B1
S11342A05527842B952B8617970759F08F812E81DC
S11342B09927982F88273327822B932B8F5F9F4F23
S11342C0A1F489818770813081F4C09AC0988AE012
S11342D00E94EA12C09AC0984091D3014750289690
S11342E0BE018FE30E940513F8C04091D3014750EB
S11342F055272896BE01A6CFC09A8091EC01882349
S113430039F484E00E94FA138091EC01882311F0BF
S1134310B7990AC00E9B08C09091C107992321F058
S11343208091D3018B3038F480914E0190914F01EC
S11343300E9488083DC0913001F5E091DE07FF2717
S1134340EE0FFF1FEE0FFF1FE559F84F208131815B
S113435042815381E0914E01F0914F0121ABBB2783
S1134360A52F942F832F80ABCA01AA27BB2787A729
S1134370252F33274427552726A78091DE07992721
S1134380019668E070E00E94C3318093DE0780915B
S1134390C10781508093C107882351F080914E0159
S11343A090914F010E9488081092DE071092C10775
S11343B08091D301FE01E80FF11D808187FF31C098
S11343C0012B79F169816770E0914E01F0914F0101
S11343D0623019F5A0918F02B0919002109709F103
S11343E080912501909126010797D9F4ED019B81D5
S11343F083819817B1F487B78F7E87BF908181E05E
S11344008CA7E90FF11D8291319688A780818F775F
S113441089A780E00E94BF1704C0613011F48EE0C8
S11344202AC00E94481459C010924602C09A84E0DF
S11344300E94FA1352C08E3309F04FC0C09A809183
S11344402501909126010897C9F4C09889E00E943B
S1134450EA12C09A83E00E94FA1381E090E09093FC
S11344602601809325018FB7F894992723E02093A0
S11344701F018FBF87E00E941F022FC080912C0A6A
S1134480882349F484E090E09093260180932501E9
S11344900E94732022C083E00E94FA1383E090E01C
S11344A090932601809325010E942505DC01CB0110
S11344B066E371E00E94AF315BE0E52EF12CE80E7B
S11344C0F91EF092A601E092A5010E949708002728
S11344D01127A80197010E945409DF91CF911F91E0
S11344E00F91FF90EF9008951F920F920FB60F92C5
S11344F011242F933F934F935F936F937F938F93E5
S11345009F93AF93BF93EF93FF932FB1E09119045F
S1134510F0911A04309739F08091FB029091FC02DB
S1134520E80FF91F20838091FB029091FC02019611
S11345309093FC028093FB0280E00E94040240916D
S11345405B0150915C018091FB029091FC02841705
S1134550950718F40E9452021CC0609119047091CE
S11345601A0480911B0890911C0810921A0410924E
S1134570190410921C0810921B0810925C011092EE
S11345805B011092FC021092FB022FB120E00E940A
S1134590CE20FF91EF91BF91AF919F918F917F9129
S11345A06F915F914F913F912F910F900FBE0F909C
S11345B01F9018956F927F928F929F92AF92BF92A5
S11345C0CF92DF92EF92FF920F931F93CF93DF93DB
S11345D0CDB7DEB722970FB6F894DEBF0FBECDBFBE
S11345E0E82FFF27EF31F10510F00C944C2AEA5B19
S11345F0FF4FEE0FFF1F0590F491E02D0994809179
S1134600DF07882309F0B4C447C78091990288233F
S113461009F442C790E011E0FDC68FB7F8942091E9
S11346200B0320FD2AC720E02CC72091B40449EBDA
S113463052E08FEF8093BF028093BE0283E98093A0
S1134640C40280918B0790918C07892B09F035C1A6
S113465050938C0740938B072093C20280911901D9
S11346608823A9F0109219016FEF7FEF83E90E946C
S11346703D039927282F882351F081E08093190165
S113468010928C0710928B07222309F016C181E047
S113469080931E0101C78091E901882361F520916F
S11346A06707309168074091690750916A07EFB72F
S11346B0F894FF2760919F047091A0048091A10455
S11346C09091A204E090A801F090A9010091AA01A0
S11346D01091AB016E0D7F1D801F911FEFBF2093C2
S11346E06707309368074093690750936A071092ED
S11346F0E9010E94050A0E94AE0543C00E94AE056E
S11347005B016C018FB7F89499271092F2028FBF66
S11347106FEFE62E6FEFF62E6FEF062F6FE7162F73
S113472060E0EBE7F3E0808581FF1CC0808191812C
S1134730A281B381A6019501281B390B4A0B5B0B9F
S1134740DA01C9012481358146815781281B390B3F
S11347504A0B5B0B2E153F05400751071CF47901EA
S11347608A0161E0399633E0E13BF307E1F6662321
S113477009F492C61E141F04100611062CF0C6017B
S1134780B5010E943E1F88C6E0926707F092680751
S11347900093690710936A0781E08093E901A801F7
S11347A09701C601B5010E94050A76C62FB7F89491
S11347B033278BB391E089278BBB2FBF80910001F6
S11347C09091010180938002892F992780937F0221
S11347D01092810280911B0190911C01019690938B
S11347E01C0180931B0180938302892F9927809356
S11347F082028AEA809385028093840280911D015B
S1134800882309F049C668E084EE97E00E94E70631
S1134810009709F43CC0FC01AFE7B2E088E00D90DA
S113482001928150E1F73EC02FB7F89433278BB340
S113483092E089278BBB2FBF8091000190910101E9
S113484080938002892F992780937F0281E080934F
S1134850810280911B0190911C01019690931C018F
S113486080931B0180938302892F9927809382026E
S11348708BEB8093860280911D01882309F00CC67E
S113488068E084EE97E00E94E706009719F40E941E
S1134890010302C6FC01AFE7B2E088E00D9001928B
S11348A08150E1F748E064EE77E00E9464178823C2
S11348B021F481E080931D01EFC50E94F306ECC54D
S11348C00FB7F894112781E00E946F0981E0E82E68
S11348D0F12CF0922601E09225011092270110920A
S11348E0B1011092EA010FBF0FB7F89411270E948B
S11348F07C08F092D201E092D1011092460289B76D
S11349008F7B89BF80E488BF8AB780628ABF8AB7F9
S11349108F7E8ABF89B7806489BF0FBF8FB7F89431
S1134920082F11278091200190912101049719F4F7
S113493083E00E94EA120FBF0FB7F8941127C09AC0
S113494080E00E94FA130FBF8FB7F894992722E0F2
S11349502093A4048FBF81E08093310180913201C0
S1134960882311F00E94250580912B018460809397
S11349702B0190E080912E01882309F491E0992382
S113498019F480E10E941F028091000190910101BD
S1134990892BD9F48FB7F894282F3327922F80913D
S11349A081048A3041F080914702843021F02FBF86
S11349B00E94010304C09FBF86E10E941F028091F0
S11349C0000190910101892B71F048E853E160E006
S11349D070E080E00E9475108091000190910101C7
S11349E0892B09F059C520915C0730915D0781E05E
S11349F08093980180919C0490919D0490935D070D
S1134A0080935C0710925F0710925E072F5F3F4F01
S1134A1009F042C524C28FB7F89499271092A404D0
S1134A208FBF1092310180912B018B7F95C28FB77C
S1134A30F8949927F0901F018FBF63E081E00E94F2
S1134A40ED01882359F10FB7F8941127109226012C
S1134A501092250187B78F7E87BF87B78F7D87BF69
S1134A6083E00E94FA13C09A0FBF0FB7F89411277E
S1134A701092D2011092D1010E947C08C09A89B789
S1134A808F7B89BF0FBF1092210110922001DE9805
S1134A90DD98DE9A86E00E941F0207C08FB7F89463
S1134AA0992722E02093A4048FBF0091EF02109174
S1134AB0F0020E94E1028091E1079091E207892BC4
S1134AC009F0EAC48FEF809309014F2DB8016FC13B
S1134AD08FB7F894282F3327122F80912A0A88231E
S1134AE001F581E080932A0A8091200190912101AF
S1134AF0049721F481E00E94441103C089E00E94DC
S1134B001F021FBFC9C48FB7F894992710922A0AAD
S1134B102BC48FB7F894282F332780912201882340
S1134B2011F02FBFB9C42FBF80B3992706E0969523
S1134B3087950A95E1F7182F11709091AB02809137
S1134B40AC028917D9F01917C9F484E090E0909366
S1134B502101809320018FB7F894992721E02093B5
S1134B6022018FBF60E070E08DE10E948E140E94EC
S1134B70B212C09AC09885E00E941F021093AC0242
S1134B808AE088C48FB7F8949927109102018FBFE7
S1134B90123009F465C0133030F4112359F0113088
S1134BA009F07AC448C0133009F474C0143009F011
S1134BB073C4A0C0C0988FB7F894082F11278091B0
S1134BC02001909121010297A1F583E090E0909358
S1134BD021018093200168E170E08DE10E948E1430
S1134BE081E08093AB021092220180B3992716E0F2
S1134BF0969587951A95E1F7817090708093AC0231
S1134C008AE00E941F0281E00E94EA126FE772E0CC
S1134C108CE10E948E140E94EF140E94B51466E584
S1134C207AE287E10E948E146FEF70E885E10E94BA
S1134C308E140FBF31C4C09886E00E94EA120E940D
S1134C40EF140E94B5140E94B212C09AC09883E077
S1134C500E94EA12C09A81E00E94FA1389E01AC401
S1134C60C0988FB7F894082F112760E080E00E9465
S1134C70ED01882311F00FBF0AC00FBF83E50E9426
S1134C80460280E00E94460280E00E944602C09AEA
S1134C9082E02DC08FB7F8949927209125018FBF0A
S1134CA0243039F0283041F0223001F50E940015FB
S1134CB0F3C30E947320F0C3C09889E00E94EA12F3
S1134CC0C09A83E00E94FA138FB7F894992721E0E1
S1134CD030E030932601209325018FBF8FB7F894DD
S1134CE0992710931F018FBF87E0D4C383E00E94EC
S1134CF0FA13D2C30E943713CFC30FB7F894112706
S1134D0040915B0150915C016091190470911A0407
S1134D1080911B0890911C0810921A041092190497
S1134D2010921C0810921B0810925C0110925B01F7
S1134D301092FC021092FB0220E00E94CE2079CF58
S1134D402FB7F89433278091ED018093050182E019
S1134D50809324012FBF80910501882309F09CC30F
S1134D60B89AC0988BE096C30E94941995C3909109
S1134D70950280910901981709F48EC39093090153
S1134D809923D1F40091290110912A016091B7026D
S1134D90C8010E944615482F5527442309F47CC3B3
S1134DA08FEF809309016091290170912A01F80124
S1134DB083850E94BA1870C38FEF809309016CC376
S1134DC080912B0184FD68C390E080912E0188239B
S1134DD009F491E0992309F05FC380919801882335
S1134DE059F420E080915C0790915D078F5F9F4F9D
S1134DF009F021E0222331F0CE0101960E94BC0685
S1134E00882339F060E177E280E090E00E94D617D1
S1134E1043C3E0912C01FF27EE0FFF1FE45CF84F22
S1134E20C080D180D601ED91FC911081E0905C07A7
S1134E30F0905D07CF010E943B0620E0909197011E
S1134E40891708F421E0222361F00E941606F60176
S1134E50808191810E947E06C6010E949D0680E1A8
S1134E6019C380919801D601ED91FC91882359F1E1
S1134E70B388A091A902B091AA0284E301900D9293
S1134E808150E1F70091A9021091AA02F8018081F2
S1134E908551E82EFF246E2DC8010E94E706BC014F
S1134EA0F3E9BF1629F44E2DC8010E94E1108C01CC
S1134EB01093AA020093A90260E0D6018D919C91FF
S1134EC00E941018E9C289819A818787892F9927BE
S1134ED08687D601ED91FC91119784858F73848721
S1134EE04D915C91DA011196FD018181FA012181D4
S1134EF09927982F882733272062822B932B81832D
S1134F00892F9927FD01818380912B0188608093EB
S1134F102B0180FF0BC0D601ED91FC918485806448
S1134F20848780912B018E7F80932B01D601ED9194
S1134F30FC91E6828F2D9927878381E783871D5013
S1134F40412F5527BF0180E00E9495169927882399
S1134F5031F480912B01806180932B019DC28230BA
S1134F6009F09AC2D601ED91FC9189E2808377CF52
S1134F7041E0D42EEE24FF240DEF12E09091DF07E0
S1134F808D2D892371F0F801608171811182108265
S1134F908D2D809598239093DF0743E08E2D0E94FA
S1134FA09B180894E11CF11C0E5F1F4FF8E0EF16EC
S1134FB0F10409F471C2DD0CE1CF10910C01E12F71
S1134FC0FF27EE0FFF1FE350FD4FE080F1801182B9
S1134FD010820E94421641E0B701812F0E949B1863
S1134FE05BC280919801882309F056C2AA24BB248D
S1134FF02FEFE22EF22E9FEF892E992ECC24DD2462
S113500043C0022F112783E0000F111F8A95E1F797
S113501000511E4FF80122813381FFEF2F3F3F07DC
S113502081F180919C0490919D042817390749F1DE
S1135030D8018D919C910E94F2043C01F801648195
S11350407581AC01460F571F2081318180915C0727
S113505090915D07A7812817390741F470935F0782
S113506060935E07A09361074A010BC0AA2349F429
S1135070F2E36F16710428F44E155F0510F458011D
S11350807A010894C11CD11C2C2D8091B001C81642
S113509008F4B7CF2FEFE2162FEFF20609F47AC027
S11350A03FEF83163FEF930691F0809161078823C9
S11350B041F080915E0790915F070A96E816F90621
S11350C030F0C7010F968815990508F063C08091E8
S11350D0C5079091C607A091C707B091C80701966C
S11350E0A11DB11D8093C5079093C607A093C70760
S11350F0B093C80780915C0790915D070E94DA0421
S11351008F3F81F0282F33278BE090E0289FF00118
S1135110299FF00D389FF00D1124E45FFC4F858129
S1135120877F8583D5018D919C910E940B05F501A4
S1135130808191810E94DA048F3F41F0EBE08E9FE1
S1135140F0011124E45FFC4F12861186D5018D9184
S11351509C9190935D0780935C07F5018481958110
S113516090935F0780935E07878180936107C401F2
S11351708E199F09459770F080E890E0A0E0B0E0B8
S113518080930E0190930F01A0931001B09311012D
S11351900E94931080913401882369F4FFEF8F16E5
S11351A0FFEF9F0641F42FEFE2162FEFF20619F0FE
S11351B080E10E941F02109234016EC1809133017C
S11351C0882309F069C1E0919F02F091A002108246
S11351D080915C0790915D07E0919F02F091A0029D
S11351E08283892F9927818380919801882329F0CC
S11351F080915E0790915F0720C080915C07909139
S11352005D0700915E0710915F073FEF8F3F9307A3
S113521081F4E0919F02F091A0020483812F9927E9
S11352208383E0919F02F091A00280818068808353
S11352300CC00E94F204800F911FE0919F02F09134
S1135240A0028483892F99278383F4E5CF2EF2E08B
S1135250DF2E68E0C6010C970E94D505E5E0EE2E2E
S1135260F12CE80EF91E882440E000E010E07BE019
S1135270A72EB12C63E0962E8091300199270196D8
S1135280800F911F6AE070E00E94C3319C0199274E
S11352908A9DD0018B9DB00D9A9DB00D1124A45F01
S11352A0BC4FFD018581992780FF15C081FF13C084
S11352B08D919C911197499DB00111246E0D7F1D14
S11352C0FB018183892F99278083FD018681FB015E
S11352D082834F5F822E0930110521F00F5F1F4F2B
S11352E0473050F28092300180912F018F5F80937C
S11352F02F018150F6018183842F8F708093540293
S11353008FEF80934E0280934F0280E78093530285
S113531083E0489FC0011124895F482F552768E422
S113532072E081E00E9495169927882321F481E098
S113533080933301B1C0843009F0AEC010923101C2
S1135340ABC00E94F203A8C056985798109250041C
S113535010927E02539A549A579A8FB7F8949927C9
S1135360109281041092470253C088E193C053986D
S1135370549892C010923B0110923A018FB7F8945E
S1135380992740913E018FBF80913F01811143E0F5
S1135390209138013091390180914001882309F02E
S11353A07BC080911901882309F076C060918B0736
S11353B070918C076217730709F06EC058C08FB7DD
S11353C0F894992720914201A0914301B09144019E
S11353D03091AF018FBF222329F4FD0183858339E6
S11353E009F4DC018FB7F894E32FFF27EE0FFF1FBA
S11353F0ED5EFE4FB183A08320913601332311F07B
S11354002B7F01C02D7F20933601109241019927F3
S11354108FBF42C020919902812F8223C1F0E92FCE
S1135420FF27EE0FFF1FE557F84F4081518111828E
S11354301082812F8095282320939902992339F48F
S113544063E0CA010E94BC0E110F91E0E3CF9F5F9D
S1135450983010F5110FDECF80911901E82FFF2746
S1135460EE0FFF1FE557F84F6081718141E00E9404
S1135470F70E12C00E94E8020FC02E7F20930B0388
S113548021E099278FBF222339F084E392E10E941F
S1135490D4168EE10E941F0222960FB6F894DEBF46
S11354A00FBECDBFDF91CF911F910F91FF90EF9071
S11354B0DF90CF90BF90AF909F908F907F906F9030
S11354C008958091C2078F3FB1F0282F3327F90147
S11354D0EE54FE4F80818093C2078F3F11F4809376
S11354E02B0A8FEF80832F3F31F0822F0E94DA2224
S11354F081E090E0089580E090E0089578941F9210
S11355000F920FB60F9211242F923F924F925F92F7
S11355106F927F928F929F92AF92BF92CF92DF92BF
S1135520EF92FF920F931F932F933F934F935F93A9
S11355306F937F938F939F93AF93BF93CF93DF9397
S1135540EF93FF93C6B5D7B58FB7F894282E0E9472
S113555097089B012C1B3D0B442755272B013C012D
S1135560421A530A640A750A809125019091260112
S11355708530910521F0069709F0E0C0BFC086E0B0
S113558090E0909326018093250131E0332E3092F0
S113559044021092270180E00E946F09E0918F027B
S11355A0F091900241AABB27A72D962D852D80ABA3
S11355B0C301AA27BB2787A7872D9927AA27BB271B
S11355C086A7E0918F02F091900285A5882309F4C3
S11355D084C06081655077274F01860E971EF401C1
S11355E02081E1808281A3809927AA27BB27BA2F33
S11355F0A92F982F8827332744275527522F44272C
S113560033272227FF24002711278701FF24EE24B4
S11356102E293F29402B512BBB24CC24DD242A29BD
S11356203B294C295D29822B932BA42BB52B841960
S11356309509A609B7098383292F3A2F4B2F55279C
S113564022839D014427552721838B2F9927AA273D
S1135650BB278083C09824E0A40180E090E00E94EE
S11356607112C09AF4012081E1808281A38099277C
S1135670AA27BB27BA2FA92F982F88273327442777
S11356805527522F442733272227FF240027112789
S11356908701FF24EE242E293F29402B512BBB24C4
S11356A0CC24DD242A293B294C295D29822B932BE8
S11356B0A42BB52B840D951DA61DB71D8383292FFF
S11356C03A2F4B2F552722839D01442755272183A9
S11356D08B2F9927AA27BB278083E0918F02F09113
S11356E09002818185FF02C03092B10183E00E9463
S11356F0FA1387B78F7E87BF84997AC010924402C9
S113570081E00E946F09E0918F02F0919002818103
S113571085FF0FC087E090E09093260180932501D8
S11357200E94970820E031E040E050E00E945409D4
S113573003C080E00E94BF17849B5AC08091270158
S1135740882391F580914402882371F511E0109328
S113575044020E946F0980B32091C107283098F455
S1135760E091DE07E20FFF27E770F070EE0FFF1FF6
S1135770EE0FFF1FE559F84F408251826282738217
S11357802F5F2093C10710932701D093B202C093D7
S1135790B10284992DC0992774E0969587957A95DE
S11357A0E1F7182F117001C010E08091440281309C
S11357B0F9F4109244020E946F09109227011123F8
S11357C0B9F48091B1029091B202C81BD90B2A9707
S11357D078F48091C107882319F081508093C10720
S11357E080918F0290919002009711F00E94880896
S11357F02FBEFF91EF91DF91CF91BF91AF919F9118
S11358008F917F916F915F914F913F912F911F9154
S11358100F91FF90EF90DF90CF90BF90AF909F904B
S11358208F907F906F905F904F903F902F900F904C
S11358300FBE0F901F90189578941F920F920FB679
S11358400F9211241F932F933F934F935F936F9362
S11358507F938F939F93AF93BF93EF93FF9387B7F8
S11358608F7E87BF78941FB7F89480919B029091A4
S11358709C02A0919D02B0919E020097A105B105E2
S113588009F051C080912501909126018530910540
S113589061F18630910530F48330910549F0049725
S11358A081F51AC087309105F1F0089751F514C0BD
S11358B0869B0FC084E090E090932601809325019D
S11358C00E94970827E030E040E050E00E9454092D
S11358D018C00E94492015C00E949C11882389F495
S11358E00E9473200EC080E00AC089E00E94EA1280
S11358F081E00E946F0983E00E94FA1387E00E940E
S1135900BF178091200190912101019771F482E0E9
S113591090E09093210180932001DE98DE9A80E04C
S11359200E94441102C00E94B408812F99278FBF9E
S1135930FF91EF91BF91AF919F918F917F916F9163
S11359405F914F913F912F911F910F900FBE0F9038
S11359501F901895CFECD0E1DEBFCDBFEFB6F89421
S11359604FE150E06FEF70E082EB91E00E947D31F7
S11359708FEF8093C20780932B0A81E08EBD88E06D
S113598080BF83E083BF8CB59DB54AE72CB53DB598
S11359902817390708F44150442311F0C901F6CF00
S11359A092B782B78917E9F32CB53DB592B782B7A0
S11359B08917E9F38CB59DB5821B930B409675E06E
S11359C0969587957A95E1F79093C4078093C307DA
S11359D013BE83B78EBD8EB580BF12BE1DBC1CBC6A
S11359E08FEF86BF86B780937C0080B79927877036
S11359F09070892BD1F7D29AD19AD09ADA9AD99AFF
S1135A00D89A15BA8FEF84BBD498DC981092890089
S1135A101092880080917D00846080937D00809145
S1135A208A00887F826080938A001DBC1CBC87B773
S1135A30846087BF8EB5887F84608EBD0E94612A92
S1135A408823E1F780E094E0909351018093500122
S1135A5010925A0110925201109253011092540163
S1135A60109255011092560110925701109258014C
S1135A701092590110920B0310924F04EAECF7E0D4
S1135A8080E298E081939193C49627E0EE3DF2077B
S1135A90C9F76AE0F62EF092EE011092AE0112E020
S1135AA006E06091C3077091C407882799275CE0DA
S1135AB0660F771F881F991F5A95D1F720E031EEA2
S1135AC040E050E00E94D6312150304029B9832F64
S1135AD09927809390001BB9009395001AB82093DE
S1135AE099008093980010939B0000939D0010925E
S1135AF09A0084E490E09093630780936207109285
S1135B00B3021092B502F092810410929A0210929C
S1135B10A2021092C9071092460A1092450A1092E6
S1135B201F0810927A03109258071092570784E0C6
S1135B3080934702109283041092660710928702A2
S1135B4010920803109207031092F4021092F302C9
S1135B501092F10210929701EDE2FAE081E594E0EF
S1135B608193919304962AE0E534F207C9F78CE017
S1135B708093ED021092E007E4E8F4E08AEC94E00C
S1135B8081939193C49624E0EC39F207C9F78CE031
S1135B908093EE02109296028FEF8093EF01E9E971
S1135BA0F1E08FEF9FEF918380831282339621E09F
S1135BB0E53AF207C1F70E94250560933B078091FF
S1135BC00001909101010196AA27BB2780939102BD
S1135BD090939202A0939302B09394028DE897E07D
S1135BE090934F0180934E018E98B89A8C988FEFC2
S1135BF08093A1021092A3041092A4041092A5040D
S1135C001092A604B89AD69AD59A8FB7F894992781
S1135C1020910601309107018FBF3093A802209391
S1135C20A7020E941F0A29A73AA74BA75CA76DA742
S1135C307EA78FA798ABDE019196FE01B99688E006
S1135C4001900D928150E1F7DE015196FE01B1966B
S1135C5088E001900D928150E1F7DE015996FE0132
S1135C60719688E001900D928150E1F7ACEAB4E0BE
S1135C70FE01799688E001900D928150E1F78091C0
S1135C800801992790938902809388028FE1809379
S1135C909E048AE18093C9040E941F0A29A73AA797
S1135CA04BA75CA76DA77EA78FA798ABDE01919643
S1135CB0FE01B99688E001900D928150E1F7DE0172
S1135CC01196FE01B19688E001900D928150E1F7A2
S1135CD0DE011996FE01319688E001900D92815003
S1135CE0E1F7ACEAB4E0FE01399688E001900D9248
