S01700006275696C642F697269732F6D61696E2E7372656343
S11300000C9485010C94A4010C94A4010C94A401F7
S11300100C94A4010C94A4010C94A4010C94A401C8
S11300200C94A4010C94A4010C94A4010C94A401B8
S11300300C94A4010C949E0E0C94A4010C94370906
S11300400C94FB160C9431170C94EE090C94F909DA
S11300500C94040A0C94A4010C94A4010C94A4011F
S11300600C944B090C94EF0B0C94A4010C94720C9B
S11300700C94A4010C94A4010C94A4010C94C90D37
S11300800C94A80D0C94B30D0C94BE0D0C94DC0DC3
S11300900C948B0D0C94A4010C949D0D0C94A40150
S11300A00C94A4010C94A4010C94A4010C94A40138
S11300B00C94A4010C94A4010C94A4010C94A40128
S11300C00C94A4010C94A4010C94A401D22209233D
S11300D03C239523CC2312245124C62434253725CC
S11300E0DE2542255625E525B622FD260F27FC27C9
S11300F0C528AA29CF29D129DC29012ABD22D22A3F
S1130100E02AC72200002110422063308440A55019
S1130110C660E770088129914AA16BB18CC1ADD149
S1130120CEE1EFF13112100273325222B5529442F1
S1130130F772D662399318837BB35AA3BDD39CC399
S1130140FFF3DEE36224433420040114E664C7743D
S1130150A44485546AA54BB528850995EEE5CFF5E9
S1130160ACC58DD55336722611163006D776F66691
S11301709556B4465BB77AA719973887DFF7FEE739
S11301809DD7BCC7C448E5588668A778400861185D
S113019002282338CCC9EDD98EE9AFF94889699989
S11301A00AA92BB9F55AD44AB77A966A711A500A31
S11301B0333A122AFDDBDCCBBFFB9EEB799B588BD9
S11301C03BBB1AABA66C877CE44CC55C222C033C7D
S11301D0600C411CAEED8FFDECCDCDDD2AAD0BBD29
S11301E0688D499D977EB66ED55EF44E133E322ED1
S11301F0511E700E9FFFBEEFDDDFFCCF1BBF3AAF79
S1130200599F788F8891A981CAB1EBA10CD12DC1D6
S11302104EF16FE18010A100C230E320045025406C
S113022046706760B9839893FBA3DAB33DC31CD3CC
S11302307FE35EF3B1029012F322D23235421452BC
S113024077625672EAB5CBA5A89589856EF54FE518
S11302502CD50DC5E234C324A0148104667447640C
S113026024540544DBA7FAB79987B8975FE77EF76C
S11302701DC73CD7D326F2369106B016576676765C
S1130280154634564CD96DC90EF92FE9C899E98938
S11302908AB9ABA94458654806782768C018E108AC
S11302A08238A3287DCB5CDB3FEB1EFBF98BD89B0C
S11302B0BBAB9ABB754A545A376A167AF10AD01AFC
S11302C0B32A923A2EFD0FED6CDD4DCDAABD8BAD58
S11302D0E89DC98D267C076C645C454CA23C832C4C
S11302E0E01CC10C1FEF3EFF5DCF7CDF9BAFBABFAC
S11302F0D98FF89F176E367E554E745E932EB23E9C
S1130300D10EF01E00020E060C0411241FBECFEF06
S1130310D1E2DEBFCDBF12E0A0E0B2E0E4EFF0E650
S113032000E00BBF02C007900D92AA31B107D9F7C4
S11303301BE0AAE1B2E001C01D92A233B107E1F7CC
S11303400E94242B0C9479300C9400008FB7F894FD
S1130350992708958FBF08956D3118F080E090E0DB
S113036008950C9608950B960895282F9FB7F89436
S1130370E82FFF27E156FD4F80818F3F81F4E09104
S11303800E0BE21771F40BC020934B0804C0FF2737
S1130390E156FD4F208320930E0B20E007C025E09B
S11303A005C080914B088F3F91F7EECF892F992795
S11303B08FBF822F99270895882319F08CB5806404
S11303C002C08CB58F7B8CBD0895882319F08CB541
S11303D0806802C08CB58F778CBD08950F931F93EE
S11303E080E00E94DC010FB7F8941127229A239829
S11303F0219A209A8CB580618CBD80E00E94E50131
S11304008CB5877F8CBD8CB58B7F8CBD81E00E94C1
S1130410DC018DB581608DBD8CB58C7F8CBD0FBF2B
S11304201F910F9108950F931F93CF93DF93182F6C
S11304300FB7F89480912302882311F40E94EE01EF
S1130440802F99278FBF8FB7F894C82FDD272C2FC3
S113045080912302882361F481E080932302109326
S113046083038CE00E94B501CFBF80E090E021C0FF
S1130470E12FFF27EF57FC4F80818F3F89F4E091F4
S11304800902E11789F40CC01093080204C0FF2785
S1130490EF57FC4F10831093090280E090E002C0F4
S11304A085E090E02FBF05C0809108028F3F79F767
S11304B0EBCFDF91CF911F910F9108958FB7F894EF
S11304C0282F3327922F80910A02882331F48091B8
S11304D02302823011F42FBF13C09FBF8FB7F8944B
S11304E0282F332780912302882369F482E08093A4
S11304F0230210920A022FBF0E94EE01209A289A2A
S113050081E090E008952FBF80E00E94130280E014
S113051090E00895FB0121E030E002C0220F331F78
S11305208A95E2F784A5822B84A708958FB7F8945F
S113053020913204309133044091340450913504B5
S1130540E0918400F0918500B09B08C02F5F3F4F7D
S11305504F4F5F4FE0918400F091850099278FBF42
S1130560C901772766279F0144275527622B732BE0
S1130570842B952B0895FC0182819927982F882735
S113058021813327822B932B25E0969587952A95F5
S1130590E1F7817090700895AC01EFB7F894209161
S11305A0840030918500C901841B950B039686173E
S11305B0970720F0B9016D5F7F4F02C0640F751F6C
S11305C06115710511F461E070E061507040709341
S11305D089006093880082E086BB80916F0082600E
S11305E080936F008E2F99278FBF0895CF93DF9349
S11305F0EC010E94BB02882339F18A812981992761
S1130600982F88273327822B932B87749C7C8154C3
S11306109848D1F48F814E812FB7F8943327609195
S11306200202709103022FBF20E09927982F882798
S11306305527842B952B8617970709F021E081E035
S11306402827822F992702C080E090E0DF91CF9184
S11306500895FB0121E030E002C0220F331F8A9588
S1130660E2F784A5822399270895EF92FF920F93CE
S11306701F937C018FB7F894992700919E051091E0
S11306809F050F5E1E4F10939F0500939E05015119
S113069011408FBF89E00E94B501C801B7010E94D3
S11306A0F92F8A5D9E4F1F910F91FF90EF9008954F
S11306B08091BC059927382F22278091BD05992761
S11306C0282B392B21153105E1F0809100029091FE
S11306D0010228173907A9F42091BE053327322FC8
S11306E022278091BF059927282B392B30931B0291
S11306F020931A02232B19F4109A11980895119A31
S1130700109808951298119810988091B2048D7FD2
S11307108093B2040895AC012091D6022A3018F0D7
S113072081E090E0089580919602682F620F712D08
S1130730711DFB016A30710508F03A97EE0FFF1F37
S1130740EC5AF74F518340832F5F2093D60280E009
S113075090E008951F931FB7F8948091320988237D
S113076041F482E10E94B501882319F481E0809369
S11307703209812F99278FBF1F910895382FFA01CD
S1130780422F2D3118F082E090E008956683872F80
S1130790992785833387218780913302909134028E
S11307A0892B19F085E090E008952FB7F89433274A
S11307B085E08093360210923702F0933202E09380
S11307C0310282E090E090933402809333021092DD
S11307D0390210923802445F409335022FBF8FB71D
S11307E0F894282F332780919B058A3011F42FBF6A
S11307F019C02FBF9FB7F89480918B03882311F001
S113080020E006C081E080938B0310928C0321E0EA
S1130810892F99278FBF222329F00E94AA0380E001
S113082090E00895109234021092330281E090E037
S113083008958FB7F894992722B134E0232722B979
S11308408FBF08954FB7F8945527FC0123E0F69520
S1130850E7952A95E1F7E859FA4F8770907021E0FF
S113086030E002C0220F331F8A95E2F78081822B89
S113087080834FBF08952F923F924F925F926F9261
S11308807F928F929F92AF92BF92CF92DF92EF921C
S1130890FF920F931F93CF93DF93CDB7DEB72997C2
S11308A00FB6F894DEBF0FBECDBF6FB76983F8945F
S11308B02090730330907403409075035090760336
S11308C0662477248824EEE4AE2E73E8B72ECC2475
S11308D0DD24EE24FF2400E010E0222D332D442DEE
S11308E0552D662D772D882D90E00E943D2E2A836C
S11308F03B834C835D836E837F8388879987822EB5
S1130900932EA42EB52E2401350100E20E943B2F24
S1130910A22EB32EC42ED52EA3019201569547952F
S1130920379527952A0D3B1D4C1D5D1D57FF05C0AE
S11309305F772F5F3F4F4F4F5F4F20937303309389
S113094074034093750350937603E9818E2F99279E
S11309508FBFCA01B90129960FB6F894DEBF0FBE46
S1130960CDBFDF91CF911F910F91FF90EF90DF905A
S1130970CF90BF90AF909F908F907F906F905F903B
S11309804F903F902F9008957FB7F8946091B200F4
S113099020919A0230919B0240919C0250919D02B9
S11309A0B99B11C08091B3009091B200280F311D02
S11309B0411D511D2F5F3F4F4F4F5F4F290F311D79
S11309C0411D511D04C0260F311D411D511D872F8E
S11309D099278FBFCA01B9010895EF920F931F930E
S11309E0AE2D99E0899FF0011124E655FB4F408319
S11309F05183628373830483158326833783A170B1
S1130A0080858E7F8A2B8260808782E00E94B50178
S1130A101F910F91EF900895AF92BF92CF92DF9202
S1130A20EF92FF920F931F93F82E5A016B010E94CD
S1130A30C404AB01BC01F1E0EF2E960185018F2DBA
S1130A400E94ED041F910F91FF90EF90DF90CF90E3
S1130A50BF90AF900895AF92BF92CF92DF92EF9282
S1130A60FF920F931F930E94C4045B016C01609179
S1130A70CE047091CF048091D0049091D104E09081
S1130A804A02F0904B0200914C0210914D02E11485
S1130A90F1040105110509F448C0EFB7F894209159
S1130AA0680520FD36C0A6019501261B370B480BAF
S1130AB0590B2E153F0540075107C8F4E21AF30AF3
S1130AC0040B150B80914A0290914B02A0914C02A9
S1130AD0B0914D02821B930BA40BB50B80934A0279
S1130AE090934B02A0934C02B0934D0215C081E049
S1130AF090E0A0E0B0E080934A0290934B02A09370
S1130B004C02B0934D02A1E0EA2EF12C012D112DDF
S1130B1003C02E7F209368058E2F99278FBFB801BD
S1130B20A70184E00E940C0505C08091D6048D7F46
S1130B308093D6041F910F91FF90EF90DF90CF9098
S1130B40BF90AF90089580919B058A3021F48091E5
S1130B503203843021F081E080932E02089584E1F1
S1130B600E94B50110922E0208952FB7F8943327EE
S1130B708093C600E0ECF0E08081806480832FBF26
S1130B800895FC016115710519F481E090E0089560
S1130B908091860390918703892B19F085E090E07A
S1130BA008957093390860933808F0938703E093AD
S1130BB08603109263031092620381E080936403BE
S1130BC08091C00080648093C0008091C1008064E3
S1130BD08093C100808121E030E03093630320934F
S1130BE062030E94B50580E090E008958FB7F89401
S1130BF0992720913F022E7F20933F022EE72093D6
S1130C00BB028FBF61E070E08BEB92E00E94C105F4
S1130C1099270895AC01EBE3F4E080E090E09C01B7
S1130C20858180FF05C0808191818417950741F0FB
S1130C30C90101963B968A30910589F72FEF30E080
S1130C40C90108950E940A068F3F91F099272BE06D
S1130C5030E0829FF001839FF00D929FF00D1124EC
S1130C60E55CFB4F858181FF03C0878190850895F2
S1130C708FEF9FEF08950E940A068F3F19F481E0D9
S1130C8090E00895282F33278BE090E0289FF0010F
S1130C90299FF00D389FF00D1124E55CFB4F8581F1
S1130CA08860858380E090E008956E5F0E94AC01C7
S1130CB0009709F002960895FC0127813085C90147
S1130CC0B3E0880F991FBA95E1F7820F931F860F3F
S1130CD0971F6AE070E00E94F92F70876783089578
S1130CE0FC0161859285662329F48AE0989FB0010E
S1130CF0112409C077278AE0989FC00111240E941B
S1130D000D3011861286CF010E945C0608958091F1
S1130D102502E82FFF27EE0FFF1FE75FF74F019033
S1130D20F081E02D20912702222351F08F5F8093E0
S1130D3025028D3011F410922502215020932702B0
S1130D40CF010895AC012091ED032C3018F081E01F
S1130D5090E0089580917803682F620F712D711DC2
S1130D60FB016C30710508F03C97EE0FFF1FEE5548
S1130D70FA4F518340832F5F2093ED0380E090E08E
S1130D800895AC012091EC032C3018F081E090E040
S1130D90089580916908682F620F712D711DFB0100
S1130DA06C30710508F03C97EE0FFF1FEF5EF44FB7
S1130DB0518340832F5F2093EC0380E090E00895FB
S1130DC00F931F93CF93DF93EC01892BE9F02091CC
S1130DD03008309131088FEF2F3F3807A9F0809108
S1130DE08702813019F4198218820BC000913208ED
S1130DF010913308C9010E942206080F191F198394
S1130E00088380E090E002C081E090E0DF91CF9120
S1130E101F910F910895FC0180818D5099270895A9
S1130E20685F0E94AC01009709F008960895FC01E0
S1130E30635F60830895AF92BF92CF92DF92EF9287
S1130E40FF920F931F93F82E5A016B010E94C40462
S1130E50AB01BC01EE24960185018F2D0E94ED04A7
S1130E601F910F91FF90EF90DF90CF90BF90AF90C4
S1130E7008959BE0899FF0011124E55CFB4F718389
S1130E80608312821382148285E085831682108621
S1130E9017820895882349F0682F772784EC99E016
S1130EA00E940D306B3F710510F06FEF7FEFCB01A7
S1130EB00895CF92DF92FF920F931F93CF93DF9306
S1130EC0282F062F482F55278BE090E0489FE001FC
S1130ED0499FD00D589FD00D1124C55CDB4F8D81E7
S1130EE082FF02C08B7F8D838A81302F381B0A8357
S1130EF08B818F5F8B83332379F08C81830F8150B7
S1130F008C833B3048F068817981822F0E943907B5
S1130F100A8381E08B836EC08BE090E0489FF001F0
S1130F20499FF00D589FF00D1124E55CFB4F838120
S1130F302481820F912D911D03971CF4333008F402
S1130F4059C0C080D180CBE3D4E0888199818C15CD
S1130F509D0509F049C08D81282F332720FF44C007
S1130F606B81FC80F60E21FD16C077278827992710
S1130F702AEF30E040E050E00E94CE2F2F2D33279F
S1130F80442755270E942030DA01C9012E830E948C
S1130F904A0798878F838D8182608D830E8189E0D3
S1130FA0089F800111246B817727882799272AEFCE
S1130FB030E040E050E00E94CE2F2F2D332744270D
S1130FC055270E942030C801820F911D6AE070E00D
S1130FD00E940D30CB016E831B821C820E944A0743
S1130FE0BC01CE010E945C062B9684E0C93AD80766
S1130FF009F0ABCFDF91CF911F910F91FF90DF905C
S1131000CF90089580E090E0E0E4F4E09C018081DA
S113101080FF08C0C90101963B968A309105B1F75B
S11310202FEF30E0C9010895982FAFEF60E070E032
S113103040E050E0E0E4F4E08081282F332720FFF3
S11310400BC021FF09C023FD07C02281338126176D
S1131050370710F0A42FB9014F5F5F4F3B964A301A
S1131060510551F7892F99276817790718F48FEFDD
S113107090E008958A2F99270895AC013091980241
S11310808FEF4F3F580711F020E012C0832F9927AC
S11310900895E22FFF2773E0EE0FFF1F7A95E1F723
S11310A0E852FD4F808191818417950719F02F5FD5
S11310B0231779F7822F992708951F93CF93DF93EE
S11310C0162FC0E0D0E06AE10E945506FC01808141
S11310D08123811711F4C1E0D0E0CE01DF91CF91DB
S11310E01F910895AC01209127022D3018F081E062
S11310F090E0089580912602E82FFF27EE0FFF1F4E
S1131100E75FF74F518340838F5F809326028D30D2
S113111011F4109226022F5F2093270280E090E0C2
S11311200895DF92EF92FF920F931F938FB7F89475
S1131130282F3327D22E9091B3008091B20047B369
S1131140981711F041FF02C02FBF71C080916E0348
S11311508823E1F10E94C404E0908F02F090900291
S1131160009191021091920220916A0830916B08CB
S113117040916C0850916D086E197F09800B910B9A
S1131180621773078407950720F010926E0371E0CD
S11311901EC02E0D3F1D401F511F80919A02909139
S11311A09B02A0919C02B0919D02281B390B4A0B13
S11311B05B0B273E31054105510540F4822F223057
S11311C010F070E005C070E082E002C070E086EECE
S11311D0682F61508091B60083FDFCCF8091B200EE
S11311E0681709F46F5F20919A0230919B02409135
S11311F09C0250919D02DA01C9010196A11DB11D05
S1131200860F911DA11DB11D82179307A407B50771
S113121010F4622F60958091B60083FDFCCF60933B
S1131220B300DFBE772319F081E00E94B5011F915E
S11312300F91FF90EF90DF900895AFB7F894BB271C
S1131240E1E0E0936E0360938F02709390028093C9
S113125091029093920220936A0830936B08409312
S11312606C0850936D08AFBF0E94910808951F92B7
S11312700F920FB60F9211248F938091B000809338
S1131280B0008091B60081FDFCCF8F910F900FBE0E
S11312900F901F9018951F920F920FB60F92112462
S11312A00F931F932F933F934F935F936F937F936A
S11312B08F939F93AF93BF93CF93DF93EF93FF935A
S11312C02EB5E0913505F0913605309739F08091CF
S11312D0260490912704E80FF91F208380912604A7
S11312E0909127040196909327048093260480E02C
S11312F00E94E501C0912604D09127042091540254
S113130030915502C217D30708F042C000912D094D
S113131010912E094091350550913605CE010A965B
S11313202817390708F4C901DA01AC0FBD1FF80109
S1131330EC0FFD1F9C012150304015C00115110513
S113134031F080818EBD0DB407FEFDCF04C01EBCFC
S11313500DB407FEFDCF8EB54115510509F08C93F0
S1131360219611963196C217D30740F381E00E946B
S1131370E5010115110531F00C0F1D1FF8018081E5
S11313808EBD01C01EBCD0932704C093260411C097
S1131390109236051092350510922E0910922D09DF
S11313A010925502109254021092270410922604AF
S11313B08EB5FF91EF91DF91CF91BF91AF919F9146
S11313C08F917F916F915F914F913F912F911F91D9
S11313D00F910F900FBE0F901F90189578941F9245
S11313E00F920FB60F9211240F900FBE0F901F9003
S11313F0189578941F920F920FB60F9211240F90A4
S11314000FBE0F901F90189578941F920F920FB6ED
S11314100F9211242F933F938F939F93AF93BF9376
S11314202FB7F89433278091320490913304A0911C
S11314303404B09135040196A11DB11D809332048A
S113144090933304A0933404B09335042FBFBF9119
S1131450AF919F918F913F912F910F900FBE0F905D
S11314601F901895E4E0F1E06927660FF11DE60F7F
S1131470F11DC895982F802D3196C8959025089513
S1131480982F80913A02882389F5992379F531E0E0
S113149030933A028091110280933B0220912F02F3
S11314A0822F817080939702809116029091170287
S11314B090933D0280933C028091300280933E02DF
S11314C032273170267EE32FFF27EE0FFF1FEE5EDB
S11314D0FD4F808191819093170280931602232BF4
S11314E020932F0287E10E94B501089580912F0275
S11314F080FF02C08B7F01C08D7F80932F020895EF
S11315000F931F93082F162F809132038130D9F047
S1131510813038F0823009F44AC0833009F028C1A0
S113152059C0002309F458C110922B0810922A08BC
S11315301092A1051092440810926D031092370482
S11315401092360439C1002309F046C18091360453
S1131550909137040E94320A9093370480933604A2
S113156082E08093320310934408143409F000C1DC
S113157025C18695869503C080912F02869581703A
S113158009F0F6C080912F02992311F0846001C004
S1131590826080932F0280912F02877E88608093DF
S11315A02F02109230028FEF8093110215C1002395
S11315B009F0DEC060936D03809136049091370486
S11315C00E94320A909337048093360483E0809318
S11315D0320302C18091A1058F3F09F4C9C00023E1
S11315E009F461C0823008F4C3C0E0912A08EE23F4
S11315F009F4EBC04E2F4150E42FFF27E65DF74F6F
S113160082819927382F2227442311F4E2E002C073
S1131610E42FE150FF27E65DF74F82819927282BBD
S1131620392B80913604909137042817390709F033
S11316309FC080E00E94400A30916D0380911E0497
S113164020911F04982F9F5F963008F090E0921726
S113165071F0E82FFF27E25EFB4F32838F5F8093A8
S11316601E04863010F010921E040E94AA031092E9
S11316702B0810922A0894E0909332031092A1054B
S11316801092440810926D0310923704109236049D
S113169080913F028D7F80933F0280912E028823A8
S11316A009F49AC084C0823008F44EC0E0912B083B
S11316B0FF27E65DF74F8281482F5527342F20916D
S11316C02F02822F8695869586958370992781307F
S11316D0910519F00297F9F40EC0277E206120933A
S11316E02F02442311F485E001C080E0809330028E
S11316F03093110210C0809130028F3260F4E09177
S11317001602F0911702E80FF11D40838091300218
S11317108F5F8093300280912B08E82FFF27E65DCE
S1131720F74F62818F5F80932B08833010F0109203
S11317302B08772780913604909137040E94320A4F
S1131740909337048093360480912A08E82FFF276A
S1131750E65DF74F12838F5F80932A08833010F081
S113176010922A088091A1058F5F8093A10534C04F
S113177010922B0810922A0814E01093320310924E
S1131780A1051092440810926D0310923704109230
S1131790360480913F028D7F80933F0281E00E9456
S11317A0400A80912E02882329F0109332030E946C
S11317B0A30512C0002381F081E009CF80912F029C
S11317C0982F917080FDD5CED7CE80912E08992781
S11317D0382F222742E01CCF1F910F9108951F92AA
S11317E00F920FB60F9211242F933F934F935F9351
S11317F06F937F938F939F93AF93BF93EF93FF93D5
S11318008091C00087FF42C06091C600E091380417
S1131810F0913904309719F1809130099091310990
S1131820E80FF91F60830196909331098093300982
S113183020912B0B30912C0B8217930738F11092C7
S113184039041092380480916A058330F9F080914C
S1131850C1008F778093C10010926A0517C06E375C
S113186019F460E081E010C080913F026D3721F4EB
S1131870826080933F020AC081FF05C08D7F809300
S11318803F0280E2682780E00E94800AFF91EF9186
S1131890BF91AF919F918F917F916F915F914F9184
S11318A03F912F910F900FBE0F901F901895982F76
S11318B08D57823068F480913F02816080933F02AB
S11318C080E289278093A0058DE78093BB0202C044
S11318D09093BB0261E070E08BEB92E00E94C10543
S11318E09927089578941F920F920FB60F9211249E
S11318F0FF920F931F932F933F934F935F936F9395
S11319007F938F939F93AF93BF93CF93DF93EF9383
S1131910FF93209162033091630380913808909182
S113192039082817390780F4E0918603F09187037A
S1131930E20FF31F80812F5F3F4F309363032093A7
S113194062030E94B505D1C01092870310928603EA
S1131950109264038091C1008F7B8093C100FFB615
S1131960F89480913F0280FF0EC08E7F80933F02E7
S11319708091A0058093BB0261E070E08BEB92E064
S11319800E94C105AFC080919B05843009F48CC0CE
S1131990853040F4823021F18330B8F5813009F08C
S11319A09CC00DC0863009F48DC0863008F483C015
S11319B0873009F48EC0883009F08FC091C08091BF
S11319C082030E94570C082F83E080939B0560914B
S11319D082038091290B90912A0B0E94320A10C035
S11319E0809153080E94570C082F83E080939B0535
S11319F0609153088091290B90912A0B0E94320A1E
S1131A0090932A0B8093290B66C0E091A904FF27C9
S1131A10EE0FFF1FE657FC4F80810E94570C082FE2
S1131A201091A904C12FDD27FE01EE0FFF1FE65719
S1131A30FC4F60818091290B90912A0B0E94320AFD
S1131A4090932A0B8093290B20917E032F5F209380
S1131A507E03113039F580913602E0913102F09124
S1131A603202E80FF11DE0818F5F8093360290917E
S1131A703502981730F482E080938B0340E050E005
S1131A8002C04E2F5527DE01AA0FBB1FFD01E757E9
S1131A90FC4F8081823031F02F3F21F0A657BC4F9C
S1131AA04C9319C084E012C08091290B0E94570CFA
S1131AB0082F85E00BC080912A0B0E94570C082F39
S1131AC086E004C00E94F605082F87E080939B05FA
S1131AD002C088E003C0002329F089E080939B05BD
S1131AE00E94AA038F2D99278FBFFF91EF91DF9159
S1131AF0CF91BF91AF919F918F917F916F915F91A2
S1131B004F913F912F911F910F91FF900F900FBE16
S1131B100F901F9018951F920F920FB60F921124D9
S1131B208F938091C80087FF02C08091CE008F916F
S1131B300F900FBE0F901F90189578941F920F92DC
S1131B400FB60F9211240F900FBE0F901F9018958F
S1131B5078941F920F920FB60F9211240F900FBE1C
S1131B600F901F90189578941F920F920FB60F92B2
S1131B7011240F900FBE0F901F90189578941F9208
S1131B800F920FB60F9211240F900FBE0F901F905B
S1131B90189578941F920F920FB60F9211248F9379
S1131BA09F9380919600909197009F918F910F90B1
S1131BB00FBE0F901F90189578941F920F920FB636
S1131BC00F9211242F933F938F939F932FB7F894E1
S1131BD033278091790390917A03019690937A0345
S1131BE0809379032FBF9F918F913F912F910F90F5
S1131BF00FBE0F901F901895EF92FF920F931F93B3
S1131C0079018A01643018F044E050E002C0462FA4
S1131C105527BC018CEB95E00E94BE2FE092430255
S1131C20F092440200934502109346020E94580326
S1131C301F910F91FF90EF900895CF93DF9310922F
S1131C4021029091420220E0992309F421E0222309
S1131C5061F580914002E82FFF27EE0FFF1FEF533D
S1131C60FA4F0190F081E02D222351F48F5F80938D
S1131C7040028A3011F41092400291509093420233
S1131C80309769F0CDEBD3E0DF018FE20D9009923C
S1131C908150E1F7CF010E948B03882319F00E9441
S1131CA0820303C080E00E94B501DF91CF910895C3
S1131CB0EF92FF920F931F93CF93DF93182F7B0123
S1131CC0042FE82FFF27EE0FFF1FE75BF74F11826A
S1131CD0108210921802A0914908B0914A081097F6
S1131CE021F080917D0380FF0EC081E08093180273
S1131CF003C089E10E94B5011123C9F4602FC70113
S1131D000E941D0E14C0FD01359624813327ED0178
S1131D106D817727762F662781819927682B792B08
S1131D20AD0186810E94BE03882331F3E2CFDF91A7
S1131D30CF911F910F91FF90EF9008951F920F92F2
S1131D400FB60F9211242F933F934F935F936F938A
S1131D507F938F939F93AF93BF93EF93FF93809160
S1131D60B0008093B0008091B60081FDFCCF8091DB
S1131D70B30099270196AA27BB2720919A02309194
S1131D809B0240919C0250919D02280F391F4A1FCB
S1131D905B1F20939A0230939B0240939C025093C2
S1131DA09D0278940E949108FF91EF91BF91AF91A9
S1131DB09F918F917F916F915F914F913F912F915F
S1131DC00F900FBE0F901F90189521E02093880369
S1131DD0209366052091840030918500BC01C901DF
S1131DE00E94CC020895EF92FF920F931F9380916B
S1131DF00D0290910E02A0910F02B0911002B695BF
S1131E00A795979587958093290390932A03A09388
S1131E102B03B0932C030E943B04E0902903F09021
S1131E202A0300912B0310912C03A80197010E940F
S1131E302030AB01BC014E0D5F1D601F711F40932C
S1131E40290350932A0360932B0370932C0310925D
S1131E50290881E00E940C051F910F91FF90EF90DB
S1131E6008950F931F93FC0100810D50112762E028
S1131E700E94AC01FC01208133272F703070C9010E
S1131E80880F991F820F931F081B0250802F9927D8
S1131E901F910F9108951F93982F1FB7F894809165
S1131EA02202823099F580910702891779F5809191
S1131EB0050220E030E08F3F11F421E030E0232BD5
S1131EC0F1F49FEF909307028F3F19F42FEF30E066
S1131ED00DC0282F3327F901E952FD4F80818093EB
S1131EE005028F3F11F49093060290832093D3024E
S1131EF081E08093220285E00E94B50105C08FEF46
S1131F00809307021092220221E001C020E0812F79
S1131F1099278FBF90E0213009F491E081E0982760
S1131F20892F99271F910895CF93DF93EC01809116
S1131F302102882391F4483009F055C0A9ECB3E09C
S1131F40FB0188E001900D928150E1F788E08093D5
S1131F50C00580E00E94B50146C02091D60222232C
S1131F60C9F080919602E82FFF27EE0FFF1FEC5A6D
S1131F70F74F408151811182108221502093D60263
S1131F808F5F809396028A3011F410929602411565
S1131F90510519F40E94190426C0DA011C96FB01AC
S1131FA088E001900D928150E1F7909142029A30BD
S1131FB0A8F480914102E82FFF27EE0FFF1FEF5393
S1131FC0FA4F518340838F5F809341028A3011F42A
S1131FD0109241029F5F9093420205C0CA010E9481
S1131FE08B030E948203CE01DF91CF9108950F935A
S1131FF01F93982F1FB7F89480912302823099F58C
S113200080910A02891779F58091080220E030E076
S11320108F3F11F421E030E0232BF1F49FEF9093F4
S11320200A028F3F19F42FEF30E00DC0282F332719
S1132030F901EF57FC4F8081809308028F3F11F420
S11320409093090290832093830381E08093230279
S11320508CE00E94B50105C08FEF80930A021092B4
S1132060230201E001C000E0812F99278FBF1FB731
S1132070F89480912302882311F40E94DC01812FBB
S113208099278FBF90E0013009F491E081E098270F
S1132090892F99271F910F910895809130038230E1
S11320A031F481E08093300387E00E94B501089504
S11320B080939D08882311F484E001C081E080931B
S11320C0300387E00E94B50108954F925F926F92AA
S11320D07F928F929F92AF92BF92CF92DF92EF92B4
S11320E0FF920F931F93CF93DF932C0180915302A0
S11320F0882309F083C180912F09853009F07EC1BE
S11321000E945E02882309F479C180912F088823F4
S113211009F074C1B20182E00E942903882311F4FA
S113212090E003C0F20196A59F708091BC039817BC
S113213081F09093BC03289885EC8EBD0DB407FE06
S1132140FDCF8EB590689EBD0DB407FEFDCF8EB554
S1132150289AE20121968981F201218140E09927A0
S1132160982F88273327822B932B87749C7C815448
S1132170984809F441E0442301F1289886E88EBD8B
S11321800DB407FEFDCF8EB51EBC0DB407FEFDCF0A
S11321908EB5289A99278F7190702091770340917A
S11321A02803240F312D311D43E0359527954A9599
S11321B0E1F7281739070CF421C1289882EC8EBD69
S11321C00DB407FEFDCF8EB589E08EBD0DB407FEBC
S11321D0FDCF8EB5289A0E9496027B018C01B20134
S11321E084E00E942903882319F4E0E0F0E006C0AB
S11321F0D2018C918550F201E80FF11D289881E8F5
S11322008EBD0DB407FEFDCF8EB51EBC0DB407FE0A
S1132210FDCF8EB5289A8F71893079F0289882EC99
S11322208EBD0DB407FEFDCF8EB586E08EBD0DB418
S113223007FEFDCF8EB5289AE1C08FB7F894992791
S11322402F9A20918400309185008FBF2F98289871
S113225080E68EBDD2019C910DB407FEFDCF8EB5F4
S11322609EBD792F7250773010F4672F01C067E05C
S1132270DE01962F4D910DB407FEFDCF8EB54EBDF8
S11322809150C1F76150C60FD11D6F5F21962E1971
S11322903F092E553F4F3901882477FC8094982CB0
S11322A06E0C7F1C801E911E309719F4972F961B7D
S11322B042C02081E1808281A3809927AA27BB277D
S11322C0BA2FA92F982F8827332744275527522F11
S11322D0442733272227FF24002711278701FF24BF
S11322E0EE242E293F29402B512BBB24CC24DD2462
S11322F02A293B294C295D29822B932BA42BB52B0E
S113230086199709A809B9098383292F3A2F4B2FD6
S1132310552722839D014427552721838B2F9927F5
S1132320AA27BB278083C2CF28810DB407FEFDCF27
S113233021968EB52EBD9150B8F70DB407FEFDCF92
S11323408EB5289A289882EC8EBD0DB407FEFDCF79
S11323508EB586E08EBD0DB407FEFDCF8EB5289AEE
S11323603097D1F12081E1808281A3809927AA2727
S1132370BB27BA2FA92F982F8827332744275527FF
S1132380522F442733272227FF24002711278701B0
S1132390FF24EE242E293F29402B512BBB24CC248F
S11323A0DD242A293B294C295D29822B932BA42B3C
S11323B0B52B860D971DA81DB91D8383292F3A2F90
S11323C04B2F552722839D014427552721838B2F8B
S11323D09927AA27BB278083B20181E00E948A0241
S11323E0F20160A671A682A693A686E080932F09C7
S11323F084E08093530280E090E002C085E090E0A6
S1132400DF91CF911F910F91FF90EF90DF90CF90CC
S1132410BF90AF909F908F907F906F905F904F9000
S11324200895AF92BF92CF92DF92EF92FF920F93F3
S11324301F93CF93DF9380912F08882309F402C15F
S11324400E945E02882309F4FDC08FB7F89499278F
S1132450C0917B03D0917C038FBF10922F082898E2
S11324608FE88EBD0DB407FEFDCF8EB51EBC0DB436
S113247007FEFDCF8EB5289A982F809153028330A2
S113248011F0873031F485E080932F0988E0809340
S11324905302A92EBB24A2FE63C08091530286304E
S11324A019F41092530203C0882309F059C09430E0
S11324B009F045C0289886E88EBD0DB407FEFDCF0F
S11324C08EB51EBC0DB407FEFDCFFEB4289A2FE1D5
S11324D0F22280912803982F96959695EF2DE91B6B
S11324E08E0F809328030091930210919402F801B7
S11324F084A58B7F84A7B80183E00E948A02F80137
S1132500F6A60E9496027B018C01C0909302D090A3
S11325109402B60181E00E948A02CE19DF0927974E
S1132520CE01AA2797FDA095BA2F8E0D9F1DA01F3F
S1132530B11FF60180A791A7A2A7B3A70EC0E0918F
S11325409302F091940284A5877F84A7E09193027B
S1132550F091940284A58D7F84A785E08093530233
S1132560A3FE70C080915302843009F04EC085E010
S113257080932F091092530280919902833019F4A9
S1132580109299025FC0C0910F0BD091100BCE0135
S11325900E94BB02882389F18A8129819927982F77
S11325A088273327822B932B87749C7C81549848EB
S11325B021F58F812E819927982F88273327822B05
S11325C0932B8F5F9F4FC9F090E08091660588231D
S11325D009F491E0992389F012E01093880381E0D3
S11325E080936605809184009091850069E973E089
S11325F00E94CC021093990225C010929902109265
S1132600310380E00E9458101DC08530D9F4209118
S11326107703289886E88EBD0DB407FEFDCF8EB5EE
S11326201EBC0DB407FEFDCF8EB5289A8F71922F74
S113263096959695891B280F2093770389E08093BC
S1132640530208C090915302992309F4E6C29930C9
S113265009F013C2289880E28EBD0DB407FEFDCFA9
S11326608EB51EBC0DB407FEFDCF8EB5482F552781
S1132670433008F497C3842F99278A970CF092C3A8
S11326801EBCE0919302F09194024083142F1250E7
S1132690173010F4912F01C097E0BF016F5F7F4F97
S11326A0292FFB0140E050E00DB407FEFDCF8EB5AD
S11326B01EBC808381914827042E4295407F40258B
S11326C0052E542F42954F700426469554274527CE
S11326D0440F440F440F4025215031F79150DB0142
S11326E0A90FB11D9F5F1196E0919302F09194029E
S11326F081818770823009F421E0222349F020E0AF
S113270030E080919902823081F421E030E00DC004
S11327108FB7F894282F332760E080912308833003
S113272008F461E02FBF262F3327232B09F45CC064
S1132730191B912F18C00DB407FEFDCF8EB51EBC1A
S11327408C938D914827042E4295407F4025052E79
S1132750542F42954F700426469554274527440F1D
S1132760440F440F4025915030F70DB407FEFDCFC0
S11327708EB51EBC9A012827022E2295207F202583
S1132780032E322F22952F700226269532272327D7
S1132790220F220F220F20250DB407FEFDCF8EB588
S11327A01EBC2827022E2295207F2025032E322F9F
S11327B022952F700226269532272327220F220FD7
S11327C0220F20250DB407FEFDCF8EB5E0919302B4
S11327D0F091940285A7289A15E010932F0910927E
S11327E05302232B31F015C20DB407FEFDCF8EB575
S11327F0D9C2E0909302F090940267010894C11C3E
S1132800D11CF701818190E0282F33272770307085
S11328102230310509F491E080919902992321F144
S1132820823009F025C1F7019381E0910F0BF091FB
S1132830100B8381981709F01BC12230310509F070
S113284017C180916F008D7F80936F001092660591
S1132850BF0180E00E948A02109299021092310313
S113286080E00E94581004C18823C9F4C7010E9463
S1132870F6028823A1F01093EE0382E08093EF0325
S11328801092F003F70183818093F1038EEE93E0BD
S11328900E946510882319F483E0809399020091C3
S11328A0840010918500C7010E94F602882311F06C
S11328B0045E1C4F10932904009328048091840023
S11328C0909185009801281B390B12161306A4F465
S11328D080913103882369F490E080916605882310
S11328E009F491E0992341F0C9010E94E50E80E8C2
S11328F001C0806880933103F60180852781992780
S1132900582F44273327422B532B80919E02282F84
S11329103327F901EE0FFF1FE65CF74F80819181A9
S1132920709167058417950769F4F901E75FF44F1F
S11329308081871709F467C0872F8F5F80936705AD
S113294080831DC000E010E080E090E0CAE3D8E09E
S1132950E9E0FBE0DF01682F9C01888199818417FD
S1132960950779F420939E02909167058C918917BD
S113297009F449C0892F8F5F809367058C9300E821
S113298029C08081972F981B091710F4092F122F43
S11329906F5FC90101961196229631968530910593
S11329A0D1F66530B9F410939E02A12FBB27FD0127
S11329B0EE0FFF1FE65CF74F51834083809167055C
S11329C08F5F80936705FD01E75FF44F8083A35D0C
S11329D0B44F1C9290916705892F8F778F3779F4C4
S11329E00F3768F0E9E0FBE0292F207880818F67BA
S11329F08913208331968BE0EE30F807B9F7809184
S1132A009E02282F3327F6019281A22FBB27FD01B6
S1132A10E35DF44F808180FF07C0FD01EC5DF74F5B
S1132A208081981729F102C081608083AC5DB74F23
S1132A309C93DFB6F894809123088330B0F4E0913E
S1132A405208E80FE33008F0E350FF27EE0FFF1FB2
S1132A50E857FD4F00811181F182E0828F5F8093FE
S1132A60230888E00E94B50178018D2D99278FBF36
S1132A70F0929402E0929302C3C0892F8150833074
S1132A8008F09CC081508230E0F430912F0931303D
S1132A90C1F420E080916605882309F421E0222313
S1132AA081F02F9883E080938803309366058091AA
S1132AB08400909185006BE273E00E94CC0282E076
S1132AC068C0933009F042C080912F09833009F027
S1132AD097C00E945E028823C9F128988FE88EBDB2
S1132AE00DB407FEFDCF8EB51EBC0DB407FEFDCFA1
S1132AF08EB5289A8091810080648093810080E261
S1132B0086BB80916F00806280936F009091D202A7
S1132B10289888EC8EBD0DB407FEFDCF8EB5906667
S1132B209EBD0DB407FEFDCF8EB5289A289882EC81
S1132B308EBD0DB407FEFDCF8EB586E08EBD0DB4FF
S1132B4007FEFDCF8EB5289A84E023C080915302FE
S1132B508150823000F580912F098530E1F40E9484
S1132B605E028823C1F0289882EC8EBD0DB407FE66
S1132B70FDCF8EB583E08EBD0DB407FEFDCF8EB5BF
S1132B80289A80916F008F7D80936F0010922F0898
S1132B9083E080932F0990915302913041F4809106
S1132BA02F098330B1F52F9A90932F0925C09230C5
S1132BB039F580912F09833061F51EC0973001F5F6
S1132BC00E945E028823E1F09091D202289888EC5A
S1132BD08EBD0DB407FEFDCF8EB590669EBD0DB4BF
S1132BE007FEFDCF8EB5289A80912F09853021F4F8
S1132BF084E080932F0904C088E08093530204C0CA
S1132C0080915302883029F41092530286E00E9486
S1132C10B50180915302882309F580912F098530ED
S1132C20D1F480912F088823B1F4809199028823EC
S1132C3091F480913103882371F490E080916605CA
S1132C40882309F491E0992331F00E944D1080917A
S1132C505302882319F48AE00E94B5018091660525
S1132C60823009F092C010926605F0908803F2E079
S1132C70FF1609F466C023E0F21609F46AC081E085
S1132C80F81609F082C0209128043091290480911B
S1132C9084009091850040913103403829F41092CA
S1132CA031030E944D1071C08901081B190B47FFA5
S1132CB003C010161106ECF0C0912D03D0912E0321
S1132CC0809199028823A9F4CE010E946510992766
S1132CD0882351F48CA58E7F8CA7F0929902D0930F
S1132CE0100BC0930F0B29C09927F82E882329F1C4
S1132CF002C065E0F62E20913103822F99278F7749
S1132D00019759F4207822602093310380E198E000
S1132D100E9435030E94E50E38C027FF0AC0101632
S1132D2011063CF480E880933103C8010E94E50E4B
S1132D3002C0109231038F2D09C083E080933103C8
S1132D4024C0109299021092310380E00E9458101E
S1132D501CC080912F09823019F4F0922F0913C0FE
S1132D6080915302863079F410925302289881E8B6
S1132D708EBD0DB407FEFDCF8EB51EBC0DB407FE8F
S1132D80FDCF8EB5289A0E94E7168FB7F894282FA6
S1132D9033278091D102813061F081E08093D102A8
S1132DA02FBF49CB289A85E080932F0910925302B4
S1132DB030CF1092D1022FBFDF91CF911F910F918D
S1132DC0FF90EF90DF90CF90BF90AF9008958FB7B2
S1132DD0F894282F33278091D102882329F0806822
S1132DE08093D1022FBF089581E08093D1022FBF39
S1132DF00E941112089578941F920F920FB60F92A9
S1132E0011242F933F934F935F936F937F938F93EB
S1132E109F93AF93BF93EF93FF93E6E8F0E0808135
S1132E209181208131818FB7F894992730937C0365
S1132E3020937B0321E020932F088FBF0E94E71685
S1132E40FF91EF91BF91AF919F918F917F916F917E
S1132E505F914F913F912F910F900FBE0F901F9054
S1132E60189578941F920F920FB60F9211242F93F6
S1132E703F934F935F936F937F938F939F93AF93FE
S1132E80BF93EF93FF9380916F008D7F80936F00CA
S1132E9078949FB7F89480916605813019F482E0A4
S1132EA080936605892F99278FBF0E94E716FF91AB
S1132EB0EF91BF91AF919F918F917F916F915F91AE
S1132EC04F913F912F910F900FBE0F901F90189527
S1132ED08FB7F894282F33278091D10281508093A3
S1132EE0D102803811F02FBF089581E08093D10280
S1132EF02FBF0E94111208951F93FC018FE3828754
S1132F00809147028F5F8093470283832FB7F894A1
S1132F1033278091D1028F5F8093D1022FBF80919C
S1132F203003882311F015E00DC0F0939D05E09364
S1132F309C0581E0809330031092690587E00E942C
S1132F40B50110E00E946817812F99271F910895F9
S1132F50FF920F931F93CF93DF93F82E8B01EA0117
S1132F60622F2D3118F086E090E092C0FA0131967C
S1132F708181298170E09927582F44273327422BD8
S1132F80532BCA0187749C7C8154984809F471E0DE
S1132F90772349F4CA0180739070816498688983A7
S1132FA0892F99278183635F68832FB7F894332728
S1132FB080910202909103022FBF8887892F99275D
S1132FC089872FB7F8943327809104022FBF99275C
S1132FD08C831D82CE010E94B301FC01F0820E831A
S1132FE0812F99278F838FB7F894282F33278091C7
S1132FF02202882371F482E0809322021092070255
S11330002FBFCE010E947C179927182F882399F08F
S11330100FC02FBFD093D502C093D4028FB7F894BA
S1133020C82FDD272C2F80912202882399F406C013
S113303080E00E944B0F812F99272AC081E0809362
S113304022021092D30285E00E94B501CFBF80E036
S113305090E01EC08091D7028F3F89F4E091060270
S1133060EE2369F010C01092050204C0FF27E95254
S1133070FD4F10821092060280E090E002C085E0CD
S113308090E02FBF05C0809105028F3F79F7EBCF09
S1133090DF91CF911F910F91FF900895EF92FF92CE
S11330A00F931F93CF93DF9380910B02992701967F
S11330B064E070E00E940D30682F80930B0200E002
S11330C0462F5527FA01EE0FFF1FE65DFB4FC08127
S11330D0D181209799F0E62FE695E695E695FF27AE
S11330E0E859F74F808199279A012770307002C000
S11330F0959587952A95E2F780FF0DC0CA01019640
S113310064E070E00E940D30682F0F5F0430C1F658
S113311000930B021FC060930B026430D8F4E88064
S113312083EFE80EFF240F811127102F00278E81D3
S11331309927082B192BCE010E94B301FC012E2DD7
S1133140AE01B80180810E94A817882319F08FE08E
S11331500E94B501DF91CF911F910F91FF90EF90E5
S11331600895EF92FF920F931F93CF93DF93E82E6E
S11331708B01F42E83E08E1518F481E090E03BC0BF
S1133180CE2DDD27CC0FDD1FC65DDB4F88819981F5
S1133190892B19F085E090E02EC079836883EDE0F7
S11331A0FE0EFB01F082F3EFFF0E80910B028430E0
S11331B018F480E090E01FC0CB010E94B301FC0131
S11331C08081F80167817727762F66272681332748
S11331D0622B732BE0920B022F2DA8010E94A817DB
S11331E09927282F882329F084E080930B021982E1
S11331F01882822F9927DF91CF911F910F91FF9011
S1133200EF900895CF92DF92EF92FF920F931F9366
S1133210CF93DF936C0180918E02882309F486C0DA
S113322080912F03882309F081C066E086E592E04F
S11332300E94AC01EC01892B09F478C081E08093F1
S11332402F03C9828D2D9927888384E3C81682E1D0
S1133250D80629F020E030E040E050E008C020919A
S11332604302309144024091450250914602FE01CE
S113327032962383BB27A52F942F832F8283CA01E1
S1133280AA27BB278183252F3327442755272A8341
S1133290E280FF2400271127102F0F2DFE2CEE248F
S11332A0522F4427332722279927AA27BB27DC013B
S11332B099278827282B392B4A2B5B2B8381992725
S11332C0AA27BB27282B392B4A2B5B2BE22AF32A6C
S11332D0042B152BE114F1040105110511F410E080
S11332E012C084E3C81682E1D80621F414E06CEB22
S11332F075E003C010E060E070E0412F5527CE0177
S113330006960E94BE2F8FEF80935C0280935D022D
S113331086E592E00E94B301FC0180E680831A5F97
S1133320412F66E572E082E00E94B118DF91CF91EF
S11333301F910F91FF90EF90DF90CF900895CF925F
S1133340DF92EF92FF920F931F936C017B010E9417
S11333503B04DC01CB01B6010E94F92FE80EF91EF3
S113336000271127B801A70183E00E940C051F91D3
S11333700F91FF90EF90DF90CF900895AF92BF929E
S1133380CF92DF92EF92FF920F931F93282F332750
S11333908BE090E0289FF001299FF00D389FF00DFD
S11333A01124E85BFD4F82819381A481B58100974C
S11333B0A105B10569F080819181880F991F9183DE
S11333C080838150944020F080E094E09183808356
S11333D08BE090E0289F5001299FB00C389FB00CDF
S11333E0112488E492E0A80EB91EF5018681978124
S11333F0A085B18582839383A483B583C080D18063
S1133400EE24FF2469E0CC0CDD1CEE1CFF1C6A9545
S1133410D1F70E943B04DC01CB01F501008111814D
S1133420B801762F6627770F0E94F92FAA27BB27AA
S11334308C0D9D1DAE1DBF1D222733274AE0000FB2
S1133440111F221F331F4A95D1F7081B190B2A0B92
S11334503B0B068317832087318722813381448184
S11334605581280F391F4A1F5B1F228333834483EE
S113347055831F910F91FF90EF90DF90CF90BF90F5
S1133480AF900895FF920F931F93CF93DF93F82E7D
S1133490282F33278BE090E0289FE001299FD00D4F
S11334A0389FD00D1124C85BDD4F81E090E09983F3
S11334B088831A868A819B81AC81BD810097A1058E
S11334C0B105A1F00FB7F8941127C9010E94220495
S11334D00FBF1A821B821C821D821E821F821886C5
S11334E019868F2D0E94BE190E942B05DF91CF9162
S11334F01F910F91FF900895CF93DF93EC010E94E9
S11335003D08282F809198022817D1F0382F315088
S11335103093980213C0822F9927E3E0880F991FF4
S1133520EA95E1F7DC01A852BD4FFC01E052FD4FE2
S113353088E001900D928150E1F72F5F231758F333
S113354080913008909131088C179D07A1F48FEF7A
S11335509FEF9093310880933008109233081092B3
S11335603208109234081092350881E080932D02BD
S113357080E10E94B501DF91CF910895AF92BF928F
S1133580CF92DF92EF92FF920F931F93CF93DF932B
S11335905B016C01C0E0D0E0EAEAF4E0608561FF21
S11335A0DDC02081318142815381E480F580068130
S11335B01781D601C501821B930BA40BB50B8E1585
S11335C09F05A007B10708F4C9C060FF03C06D7F61
S11335D0608708C02E0D3F1D401F511F208331837B
S11335E042835383C23009F471C0C33030F4CC2316
S11335F059F0C13009F0B8C013C0C33009F472C027
S1133600C43009F0B1C075C080911A0290911B02B8
S1133610892B11F483E001C084E00E94B501A4C0A9
S113362080912A02882309F49FC080912B02882369
S113363009F49AC080912908882301F580E10E9449
S1133640B50181E10E94B50140910D0250910E0235
S113365060910F02709110028091290390912A03C6
S1133660A0912B03B0912C03481B590B6A0B7B0BC5
S113367081E0809329080E940C0576C080910D0298
S113368090910E02A0910F02B0911002880F991F21
S1133690AA1FBB1F80930D0290930E02A0930F02EA
S11336A0B09310028150904DA740B04060F080E08C
S11336B090EDA7E0B0E080930D0290930E02A093EA
S11336C00F02B09310020E94F30E4EC080912A02A2
S11336D0882309F449C080912B02882309F444C04B
S11336E080E19BCF809124028F7E809324028DE021
S11336F094CF2091D2043091D3044091D4045091BA
S1133700D50480914A0290914B02A0914C02B09151
S11337104D020097A105B105F1F082179307A407A4
S1133720B507C9F480915202882361F42FB7F89445
S1133730332780913A04816080933A042FBF8BE150
S11337400E94B50180E090E00E94220480E00E9483
S1133750BE19109252020E942B0506C0219639967A
S1133760C530D10509F01ACF82E00E94B501DF917E
S1133770CF911F910F91FF90EF90DF90CF90BF906A
S1133780AF900895FF920F931F93CF93DF93F82E7A
S11337908B018091240281FD03C084E090E052C03B
S11337A0453118F082E090E04DC0485F642FC801B5
S11337B00E94170768E0C8010E94AC01FC018091D7
S11337C00002909101028583892F99278483809137
S11337D095028F5F8093950281508683CF2DDD27DC
S11337E0FF2011F483E901C080E087831182FE0188
S11337F0EE0FFF1FE55DF64F0190F081E02D30974D
S113380019F485E090E01EC011830083F2828EE1FA
S11338108383CF010E947208882319F081E090E02D
S113382011C08091240282FF05C084FD03C08DE095
S11338300E94B501CC0FDD1FC55DD64F19821882D9
S113384080E090E0DF91CF911F910F91FF90089558
S113385068E00E94AC01FC0187819927089568E023
S11338600E94AC01FC0181819927089568E00E94BF
S1133870AC01FC0186819927089568E00E94AC019F
S1133880FC0184819927982F882725813327822B4F
S1133890932B0895BF92CF92DF92EF92FF920F93F2
S11338A01F93CF93DF937C01B0908602D0901D04C8
S11338B0CC2428C00D2D03701127C7010E943D1C84
S11338C0E801CC0FDD1FCC0FDD1FC00FD11FC45486
S11338D0DD4F288139818217930791F4C7010E9433
S11338E0361C9A81981761F4C7010E942F1C9C8191
S11338F0981731F4C7010E94281C9B81981721F066
S1133900C394D394CB14B1F68C2D9927DF91CF9126
S11339101F910F91FF90EF90DF90CF90BF9008958B
S113392068E00E94AC01FC0184819927982F8827C4
S113393025813327822B932B0895AF92BF92CF9288
S1133940DF92EF92FF921F93CF93DF935C01FC0110
S11339508281882359F4B0922C09A0922B09828188
S1133960882309F088C01092200285C0442309F4FA
S11339707AC0F501C080D18080918602843009F03C
S113398046C0C6010E944A1C20918602622F0E94F2
S1133990ED2F492F9217D8F5992359F480911D04DE
S11339A09927019664E070E00E940D3080931D0415
S11339B029C080911D04840F912D911D9C012370B9
S11339C03070E901CC0FDD1FCC0FDD1FC20FD31FF8
S11339D0019664E070E00E940D30FC01EE0FFF1FC1
S11339E0EE0FFF1FE80FF91FC454DD4FE454FD4FE1
S11339F085E0019009928150E1F74F5F8091860242
S1133A004817B8F280918602815080938602109103
S1133A10860280911D04810F912D911D83709070F9
S1133A207C01EE0CFF1CEE0CFF1CE80EF91E8CEB67
S1133A3092E0E80EF91EC6010E943D1CF701918335
S1133A408083C6010E94361CF7018283C6010E944E
S1133A502F1CF7018483C6010E94281CF70183836D
S1133A601F5F10938602F501808191810E94A20656
S1133A70C5010E94C106DF91CF911F91FF90EF9085
S1133A80DF90CF90BF90AF9008950F931F93CF9383
S1133A90DF93EC01E0912502FF27EE0FFF1FE75FA4
S1133AA0F74F00811181662329F06CE170E08CE10D
S1133AB090E032C08091240283FF40C0BE0180E0C8
S1133AC00E9429038823D1F58F819927982F88276D
S1133AD02E813327822B932B0E940A06982F8F3F27
S1133AE071F08BE0989FF0011124E55CFB4F828517
S1133AF08F5F8287853018F0CF010E94700680E1C5
S1133B000E94B501F801838181508383882339F0B1
S1133B1067E070E087E090E00E949F193FC00E9438
S1133B208706809124028F7E8093240267E070E0F0
S1133B3087E090E00E949F1940E02CC00E94870615
S1133B40809124028F7E8093240267E070E087E0F6
S1133B5090E00E949F198F819927982F88272E81A2
S1133B603327822B932B0E940A06982F8F3F89F0CC
S1133B708BE0989FF0011124E55CFB4F81858F5FFA
S1133B80818782858F5F8287853018F0CF010E94FC
S1133B90700641E0BE01C8010E949D1CDF91CF91D7
S1133BA01F910F910895282FCB01213059F0213016
S1133BB028F0223089F02330A1F411C0642F0E9430
S1133BC0451D08956353734061F480912C0288234A
S1133BD041F010922C02089510922F030895109230
S1133BE02F0308952F923F924F925F926F927F928C
S1133BF08F929F92AF92BF92CF92DF92EF92FF92F9
S1133C000F931F93CF93DF93CDB7DEB722970FB6F1
S1133C10F894DEBF0FBECDBF8FB7F894282F33279B
S1133C2080912308882309F462C4E0915208FF2795
S1133C30EE0FFF1FE857FD4F808091802FBFF401E6
S1133C408285178106818F3309F013C4C4010E9451
S1133C50B3012C01FC017081F40161915F01812F9A
S1133C609927582F4427802F9927482B592B8FB7F2
S1133C70F894992720910202309103028FBF4217D2
S1133C80530721F04F5F5F4F09F029C49CE0292EB0
S1133C90312C280C391C83EF782E760E703709F4FA
S1133CA0C5C0713730F4703641F0713609F0FBC38A
S1133CB094C0713709F0F7C3A3C2F4018485258544
S1133CC09927782F66273327622B732B26856784E1
S1133CD090895188F2E164337F0721F0AA24BB2440
S1133CE0650108C0A0904302B0904402C090450210
S1133CF0D090460280918E02882309F4D4C3892F80
S1133D009927AA27BB27EE24F82E092F1A2F332729
S1133D1044275527522F442733272227862D9927B6
S1133D20AA27BB27DC0199278827282B392B4A2B64
S1133D305B2B852D9927AA27BB27282B392B4A2BA8
S1133D405B2BE22AF32A042B152BA114B104C10422
S1133D50D10461F4E114F1040105110591F16453F6
S1133D60724109F0A0C34AEF740E1BC0E114F104C0
S1133D700105110529F46453724109F094C318C074
S1133D80D801C7018A199B09AC09BD09181619067F
S1133D901A061B068CF46453724109F084C3EAEFDB
S1133DA07E0EA8019701672DC10106960E94FC0DA5
S1133DB080E00E94421A77C3EA14FB040C051D0537
S1133DC051F46453724109F06EC3809152028F5FC3
S1133DD08093520268C3CB0126C080918E0288234F
S1133DE009F461C3F401848525859927982F8827D0
S1133DF03327822B932B8453924109F054C380912F
S1133E00430290914402A0914502B091460200976A
S1133E10A105B10509F447C3F10180819927982FC1
S1133E208827822B932B0E9402193DC3F4018781BA
S1133E3026819927982F88273327822B932B8F5FEE
S1133E409F4F09F0EFC062E0C4010E94AC017C0105
S1133E50F401818520859927D82ECC243327C22AC2
S1133E60D32AC6010E940A068F3F21F0F70161811F
S1133E7077271CC00E940208182F8F3FD1F0B6018B
S1133E800E943907F7014181212F33278BE090E00D
S1133E90289FF001299FF00D389FF00D1124E55C57
S1133EA0FB4F4283F70161817727812F0E945907D5
S1133EB0B9C081E40E941408182F8F3FA1F0282F65
S1133EC033278BE090E0289FF001299FF00D389F65
S1133ED0F00D1124E55CFB4F808191810E947C1AD6
S1133EE0B601812F9DC090E0F40185A5893C08F0BE
S1133EF091E0992309F496C0C4010E94310F982FD0
S1133F00F2018081803709F08DC0953009F0CBC271
S1133F1065E0C4010E9455068C01FC018181228167
S1133F209927982F88273327822B932B8F5F9F4FB6
S1133F3009F47EC0F801838124819927582F4427EE
S1133F403327422B532B4115510521F180919802BF
S1133F50E82EFF246091300870913108A0E020E041
S1133F6030E0E8EDF2E00EC080819181861797077A
S1133F7031F0848195814817590708F4A1E02F5F37
S1133F803F4F38962E153F0514F4AA2369F3AA234C
S1133F9009F453C010E0E0E4F4E08081992780FF45
S1133FA004C083FD02C081FF1F5F3B9624E0EE3A0C
S1133FB0F20799F71123B1F10E943B04DC01CB0114
S1133FC0612F77270E94F92F00E010E0E0E4F4E08D
S1133FD09081992349F0292F332723FD05C021FD22
S1133FE003C081508F3F39F00F5F1F4F3B960A305B
S1133FF0110571F717C0202F0F3FA1F033278BE075
S113400090E0289FF001299FF00D389FF00D1124B6
S1134010E55CFB4F808191810E947C1AB601802F60
S11340200E943907C4010E94310F853009F03BC258
S113403065E0C4010E9455068C01F501F084B78047
S113404060E4C4010E945D08382E68010894C11C14
S1134050D11CF801818126010894411C511CF601F0
S113406021819927982F88273327822B932B8F5FC1
S11340709F4F09F4BDC08F2D9927F82EEE248B2D68
S11340809927E82AF92A63E0A62EB12CA00EB11EC6
S1134090F801838154E0652E712C600E711E248119
S11340A09927982F88273327822B932B892B49F51F
S11340B0C7010E940A068F3F09F50E9402088F3F3C
S11340C011F0B70119C08AE00E941408182F8F3F1D
S11340D0A9F0282F33278BE090E0289FF001299F37
S11340E0F00D389FF00D1124E55CFB4F8081918128
S11340F00E947C1AB701812F0E943907C7010E94D0
S11341003B06F501B080F301A080F601D080F201F6
S1134110C080C7010E9422068C01C7010E943D088D
S1134120482F8A30F1F18B2D9927782F66278A2D15
S11341309927682B792B8D2D9927382F22278C2DA1
S11341409927282B392B809198024817C9F40233F8
S1134150110538F5E42FFF27B3E0EE0FFF1FBA95E2
S1134160E1F7E852FD4FF182E082338322837583C5
S1134170648381E0868317824F5F4093980211C065
S1134180E42FFF27A3E0EE0FFF1FAA95E1F7E85203
S1134190FD4FF182E082338322837583648381E05F
S11341A0868380910C02882319F5C7010E943D087B
S11341B0E82F80919802E81748F4FF2773E0EE0F88
S11341C0FF1F7A95E1F7E852FD4F37828091350859
S11341D0882311F0332049F0809130089091310800
S11341E08E159F0529F4332019F080E10E94B50152
S11341F060E8C4010E945D08882309F454C12AC1FF
S1134200C4010E94281CC82EC4010E942F1C182F10
S11342101F5F68E0C4010E94AC015C01FC011183D2
S1134220FCE1F71508F43FC1C4010E944A1C20E0D8
S113423090918602891708F421E0222309F033C102
S113424010912702812F9927D82E882309F43FC083
S1134250C4010E943D1C3C0100912502010F015044
S1134260DA940D3010F4E02F02C0E02FED50FF2758
S1134270EE0FFF1FE75FF74F0190F081E02DE08024
S1134280F180C7010E943D1C8615970509F02AC1DB
S1134290C7010E94361C182FC4010E94361C18172F
S11342A009F020C1C7010E942F1C182FC4010E94CD
S11342B02F1C181709F016C1C7010E94281C182FBB
S11342C0C4010E94281C181709F00CC1ECC080918D
S11342D087028823A9F0C4010E940B0723E9C216B0
S11342E009F0E1C08850082F1127602FC4010E94F3
S11342F01007402FBC01C4010E94940F4C01D3C08D
S113430080E02091ED03222309F481E0882309F061
S1134310CAC09091EC03992309F481E0882309F041
S1134320C2C0992309F4BFC080916908E82FFF2710
S1134330EE0FFF1FEF5EF44F008111811182108296
S113434091509093EC038F5F809369088C3011F443
S1134350109269080115110509F4A5C0222309F476
S1134360A2C080917803E82FFF27EE0FFF1FEE55C0
S1134370FA4FE080F1801182108221502093ED03E6
S11343808F5F809378038C3011F410927803E114DA
S1134390F10409F488C08FE2F70111928A95E9F7D4
S11343A088E290E0880E991E87E0F40111928A95C4
S11343B0E9F788ED9FEF880E991EF80191828082BB
S11343C08FEF82838EE18383C8010E947208882361
S11343D089F5CE0101960E94E006882311F5F501C6
S11343E0828123819927982F88273327822B932B27
S11343F029813A8128173907A0F080E890E0A0E0ED
S1134400B0E080930D0290930E02A0930F02B0933C
S113441010020E94F30E6CE170E08CE190E00E94C7
S11344209F198091CD0481FD03C08DE00E94B501E8
S1134430470139C0C7010E94A206C8010E94C106F3
S113444032C068E0C4010E94AC01FC018081807824
S1134450803849F580E890E0A0E0B0E080930D0258
S113446090930E02A0930F02B09310020E94F30ED9
S11344701AC0812F9927582F4427802F9927482B1A
S1134480592B8FB7F8949927209102023091030297
S11344908FBF4217530719F04F5F5F4F21F48FB757
S11344A0F89499278FBF9FB7F89480915208E82F0A
S11344B0FF27EE0FFF1FE857FD4F918280828F5F29
S11344C080935208833010F0109252088091230890
S11344D0815080932308892F99278FBF9DCB7137F3
S11344E011F7AFCF0150DD2009F0BACEF0CE2FBFC7
S11344F022960FB6F894DEBF0FBECDBFDF91CF91E9
S11345001F910F91FF90EF90DF90CF90BF90AF90ED
S11345109F908F907F906F905F904F903F902F90DF
S113452008956F927F928F929F92AF92BF92CF9293
S1134530DF92EF92FF920F931F93CF93DF93CDB748
S1134540DEB722970FB6F894DEBF0FBECDBFE82FBB
S1134550FF27EC31F10510F00C94F22AEA59FF4FD1
S1134560EE0FFF1F0590F491E02D099480916808E7
S1134570882309F01DC40C94F22A80917D038823BA
S113458011F40C94F22A90E011E00C94B02A8FB745
S1134590F89420913A0420FF02C00C94E32A20E00E
S11345A00C94E72A2091C0054DEB53E08FEF8093E4
S11345B0C3038093C20383E98093C80380914908AD
S11345C090914A08892B09F02AC150934A084093D4
S11345D049082093C603809118028823A9F01092F9
S11345E018026FEF7FEF83E90E94BE039927282FFB
S11345F0882351F081E08093180210924A081092A7
S11346004908222309F00BC181E0809321020C9414
S1134610F22A8091D002882361F5209145083091D7
S113462046084091470850914808EFB7F894FF278F
S113463060918F0270919002809191029091920208
S1134640E0906A08F0906B0800916C0810916D0876
S11346506E0D7F1D801F911FEFBF2093450830937F
S1134660460840934708509348081092D0020E948D
S11346701D090E94C40444C00E94C4045B016C016F
S11346808FB7F894992710926E038FBF60E07FEF85
S1134690E72E7FEFF72E7FEF072F7FE7172FEAEA4A
S11346A0F4E0808581FF1CC080819181A281B38167
S11346B0A6019501281B390B4A0B5B0BDA01C901D2
S11346C02481358146815781281B390B4A0B5B0BAA
S11346D02E153F05400751071CF479018A0161E05A
S11346E0399634E0E73DF307E1F6662311F40C94C0
S11346F0F22A1E141F04100611062CF0C601B5017F
S11347000E94BE1A6FC7E0924508F09246080093D3
S113471047081093480881E08093D002A8019701CC
S1134720C601B5010E941D095DC70E94190480914C
S113473000029091010280936603892F9927809348
S113474065031092670380911C0290911D020196EB
S113475090931D0280931C0280936903892F9927EB
S1134760809368038AEA80936B0380936A03809141
S11347702002882309F036C768E08EE698E00E949C
S113478010070097B1F1FC01A5E6B3E088E00D90B5
S113479001928150E1F738C00E941904809100020F
S11347A09091010280936603892F99278093650372
S11347B081E08093670380911C0290911D02019611
S11347C090931D0280931C0280936903892F99277B
S11347D0809368038BEB80936C0380912002882381
S11347E009F000C768E08EE698E00E941007009781
S11347F019F40E948203F6C6FC01A5E6B3E088E042
S11348000D9001928150E1F748E06EE678E00E9455
S1134810C21B882321F481E080932002E3C60E9416
S11348201904E0C62FB7F89433278091D3028093FC
S1134830070282E0809322022FBF8091070288231F
S113484009F0D0C68091D4029091D5020E947C17C1
S1134850A82EBB24AA2009F4C5C680E00E944B0FF1
S1134860C090D402D090D502C6010E94B301F0904A
S11348700B0243E04F1508F4B5C6EF2DFF27EE0FEA
S1134880FF1FE65DFB4F008111810C151D0509F02A
S1134890A9C6118210820E944E184A2DB8018F2D8C
S11348A0E0C08091300310923003853009F060C07D
S11348B081E080932A0280912B02882311F00E94C8
S11348C03B048091240284608093240290E08091D0
S11348D02702882309F491E0992319F48DE00E94BA
S11348E0B5018091000290910102892BD9F48FB710
S11348F0F894282F3327922F80919B058A3041F01A
S113490080913203843021F02FBF0E94820304C0BF
S11349109FBF83E10E94B501809100029091010242
S1134920892B71F048E853E160E070E080E00E9478
S11349301B078091000290910102892B09F052C655
S1134940209130083091310881E080938702809172
S1134950BA059091BB05909331088093300810926A
S11349603308109232082F5F3F4F09F03BC680C1D5
S1134970863031F410922A02809124028B7F0BC27C
S1134980873009F42FC6809330032CC62FB7F894D0
S113499033278091D1028F5F8093D1022FBF409142
S11349A03003413081F5809169058F5F80936905FB
S11349B0863048F520919C0530919D058091310306
S11349C08823C1F490E080916605882309F491E07E
S11349D0992381F030932E0320932D0340933103C8
S11349E08BED91E10E9435030E94E50E10929D0823
S11349F083E004C085E080939D0882E080933003C7
S1134A000E946817EFC5109230030E946817C09087
S1134A109D0800919C0510919D05F80182858F33B6
S1134A2009F0E0C580E00E944B0FC8010E94B30169
S1134A30D0900B02F3E0FD1508F4D4C5ED2DFF274B
S1134A40EE0FFF1FE65DFB4FE080F180E016F106FC
S1134A5009F0C8C5118210820E944E184C2DB7016E
S1134A608D2D0E94D31DBEC50E94F21DBBC50E94A0
S1134A703B042FB7F894332770939F0560939E05EA
S1134A802FBFB0C58FB7F8949927109236051092AE
S1134A90350510922E0910922D091092550210928C
S1134AA05402109227041092260478C42FB7F89465
S1134AB033278091830380930A0282E08093230248
S1134AC02FBF80910A02882309F08CC5209A289A66
S1134AD080912F09882309F075C08EEF91E001972A
S1134AE001960197E1F716982F9886E090E00197D8
S1134AF001960197E1F7169A289883EC8EBD0DB4C0
S1134B0007FEFDCF8EB51EBC0DB407FEFDCF8EB5DE
S1134B10289A289882EC8EBD0DB407FEFDCF8EB581
S1134B2088E08EBD0DB407FEFDCF8EB5289A8EEFBA
S1134B3091E0019701960197E1F728988EEC8EBDDC
S1134B400DB407FEFDCF8EB58DE48EBD0DB407FE0A
S1134B50FDCF8EB5289A289889EC8EBD0DB407FE3A
S1134B60FDCF8EB587EC8EBD0DB407FEFDCF8EB59F
S1134B70289A289885EC8EBD0DB407FEFDCF8EB51E
S1134B8080E88EBD0DB407FEFDCF8EB5289A109235
S1134B90BC038BE08093D202289888EC8EBD0DB4C0
S1134BA007FEFDCF8EB58BE68EBD0DB407FEFDCF9F
S1134BB08EB5289A2F9A81E080932F0980E00E9475
S1134BC0F70F10C50E94E7160DC58091240284FDDD
S1134BD009C590E080912702882309F491E0992384
S1134BE009F000C580918702882359F420E0809160
S1134BF03008909131088F5F9F4F09F021E0222304
S1134C0031F0CE0101960E94E006882341F040E194
S1134C1057E260E070E083E00E940C05E3C4E09199
S1134C202502FF27EE0FFF1FE75FF74FC080D180FB
S1134C30D6010D911C91C8010E940B07982EA090DB
S1134C403008B0903108C8010E944A1C20E09091BD
S1134C508602891708F421E0222361F00E94870666
S1134C60F601808191810E94A206C6010E94C106BC
S1134C708DE0B6C480918702D601ED90FC90882324
S1134C8089F168E0C7010E94AC01FC011781A09181
S1134C908403B0918503F7018FE201900D92815056
S1134CA0E1F7E0908403F0908503C7010E940B07AD
S1134CB0133969F48850082F1127602FC7010E9407
S1134CC01007402FBC01C7010E94940F7C01F09291
S1134CD08503E092840360E0D6018D919C910E944B
S1134CE0451D80C409811A8168E0C7010E94AC0196
S1134CF0FC010383012F1127028368E0F601808100
S1134D0091810E94AC01FC0180818F738083D60164
S1134D104D915C91DA011196FD018181FA012181A5
S1134D209927982F882733272062822B932B8183FE
S1134D30892F9927FD0181838091240288608093C3
S1134D40240280FF0FC068E0D6018D919C910E94DF
S1134D50AC01FC01808180648083809124028E7F79
S1134D6080932402F60100811181F801A6828B2D23
S1134D7099278783C8010E94B301FC0181E78083DE
S1134D80492DB80180E00E94B1189927882331F495
S1134D908091240280618093240224C4823009F02B
S1134DA021C46CE1D6018D919C910E94170760CFBC
S1134DB041E0D42EEE24FF240AE214E09091680826
S1134DC08D2D892371F0F801608171811182108227
S1134DD08D2D809598239093680843E08E2D0E9432
S1134DE0D31D0894E11CF11C0E5F1F4FF8E0EF1671
S1134DF0F10409F4F7C3DD0CE1CF10910B02E12FAC
S1134E00FF27EE0FFF1FE65DFB4FE080F18011826C
S1134E1010820E944E1841E0B701812F22CE80916A
S1134E208702882309F0DEC3AA24BB242FEFE22ED5
S1134E30F22E9FEF892E992ECC24DD2443C0022F1D
S1134E40112783E0000F111F8A95E1F708521D4FC7
S1134E50F80122813381FFEF2F3F3F0781F18091D9
S1134E60BA059091BB052817390749F1D8018D91EE
S1134E709C910E9422063C01F80164817581AC0179
S1134E80460F571F2081318180913008909131085D
S1134E90A7812817390741F47093330860933208C7
S1134EA0A09335084A010BC0AA2349F4F2E36F1614
S1134EB0710428F44E155F0510F458017A01089422
S1134EC0C11CD11C2C2D80919802C81608F4B7CFB0
S1134ED02FEFE2162FEFF20609F47AC03FEF8316A4
S1134EE03FEF930691F080913508882341F080913B
S1134EF03208909133080A96E816F90630F0C70193
S1134F000F968815990508F063C080914E0890911A
S1134F104F08A0915008B09151080196A11DB11DF0
S1134F2080934E0890934F08A0935008B093510873
S1134F3080913008909131080E940A068F3F81F0D9
S1134F40282F33278BE090E0289FF001299FF00D54
S1134F50389FF00D1124E55CFB4F8581877F8583A5
S1134F60D5018D919C910E943B06F5018081918130
S1134F700E940A068F3F41F0EBE08E9FF00111245E
S1134F80E55CFB4F12861186D5018D919C9190931F
S1134F90310880933008F50184819581909333081A
S1134FA080933208878180933508C4018E199F0944
S1134FB0459770F080E890E0A0E0B0E080930D02A7
S1134FC090930E02A0930F02B09310020E94F30E6E
S1134FD080912D02882369F4FFEF8F16FFEF9F065F
S1134FE041F42FEFE2162FEFF20619F08DE00E9444
S1134FF0B50110922D02F6C280912C02882309F08B
S1135000F1C2E0917F03F091800310828091300817
S113501090913108E0917F03F09180038283892F7E
S11350209927818380918702882329F0809132080F
S11350309091330820C080913008909131080091FC
S11350403208109133083FEF8F3F930781F4E091CA
S11350507F03F09180030483812F99278383E09158
S11350607F03F09180038081806880830CC00E945C
S11350702206800F911FE0917F03F09180038483C7
S1135080892F9927838362E083E393E00E94AC0134
S11350906C0168E083E393E00E94550675E0A72E57
S11350A0B12CA80EB91E40E0FF2400E010E06BE034
S11350B0862E912C53E0E52E8091290299270196A2
S11350C0800F911F6AE070E00E940D309C019927C7
S11350D0889DD001899DB00D989DB00D1124A55CCB
S11350E0BB4FFD018581992780FF15C081FF13C047
S11350F08D919C911197FE9CA00111244A0D5B1D7A
S1135100FA018183892F99278083FD018681FA0121
S11351108283F394422F0930110529F00F5F1F4F4A
S1135120F6E0FF1548F640932902809128028F5F2C
S1135130809328028150F60181838F2D8F708083A4
S11351408FEF8093390380933A0383E393E00E94C3
S1135150B301FC0180E7808383E0F89EC001112441
S1135160895F482F552763E373E081E00E94B118FB
S11351709927882321F481E080932C0233C2843060
S113518009F030C210922A022DC28FB7F8941092FF
S1135190320920919B0540E0283009F441E030E0D9
S11351A0293009F431E0442311F4332351F01092EF
S11351B09B05E091A904FF27EE0FFF1FE757FC4F63
S11351C0108299278FBF442311F4332331F19FB701
S11351D0F894809153088F5F8093530880918203E1
S11351E0833479F420911F0480911E04821779F08E
S11351F0822F8F5F80931F04863048F010921F0423
S113520006C0A0E0442309F4A1E071E002C0A0E0DC
S113521070E0892F99278FBF06C0222311F0FF2445
S11352206DC0A0E070E08FB7F894992720912E020A
S11352308FBF222341F08FB7F89499272AE0209357
S11352409B058FBF42C08FB7F8949927609189035B
S113525040918B038FBF8FB7F894282F332750E0EA
S113526090911E0480911F04981709F451E02FBFF8
S1135270552341F5662331F55FB7F89482E08093B6
S113528089038FB7F894282F332740E090911E04A8
S113529080911F04981709F441E02FBF442311F0B3
S11352A080E006C0E0911F04FF27E25EFB4F82818D
S11352B080938A0383E4809382031092A904852F48
S11352C099270EC04150423010F0FF240CC08FB714
S11352D0F894992725E42093820321E02093A904DC
S11352E08FBFB1E0FB2E772349F08FB7F89499274D
S11352F0A09337028FBF86E10E94B5018FB7F8945F
S1135300082F112780919B058A3021F40E94A30560
S11353100FBF68C10FBFFF2009F464C12FB7F89411
S1135320332710922A0B1092290B10927E0381E0EE
S113533080939B052FBF0E94F605882309F452C170
S11353408FB7F894992729E020939B058FBF0E947B
S1135350AA0348C18091C1008F7B8093C1008091D2
S1135360C1008F778093C10010926A051092640384
S11353708091C10088608093C1008091C1008061E8
S11353808093C1008091C10080688093C1008FB771
S1135390F894992710929B0510923203DFC085E19F
S11353A01FC18091C100877F8093C1008091C1009B
S11353B08F7E8093C10016C1109234021092330282
S11353C08FB7F8949927409137028FBF80913802A4
S11353D0811143E0209131023091320280913902EF
S11353E0882309F0FFC080911802882309F0FAC0CD
S11353F06091490870914A086217730709F0F2C076
S1135400DCC08FB7F894992720913B0200913C02AD
S113541010913D02F09097028FBF222309F088C0BB
S1135420F8018385833909F083C08091000290914B
S11354300102892B09F07CC00E94190480911E028C
S113544090911F02019690931F0280931E02D8012F
S11354501C96F801868527859927982F8827332756
S1135460822B932B892B19F4109A119802C0119A4C
S1135470109880918502882309F45AC08D919D91DA
S11354800D90BC91A02D8093BC059093BD05A09375
S1135490BE05B093BF058091430290914402A09150
S11354A04502B0914602CD01AA27BB270196A11D52
S11354B0B11D8093430290934402A0934502B0939C
S11354C046020097A105B10561F481E090E0A0E0F7
S11354D0B0E08093430290934402A0934502B093BA
S11354E0460220914302309144024091450250917A
S11354F04602A901332722278091000290910102DC
S1135500AA27BB27280F391F4A1F5B1F209343027A
S113551030934402409345025093460284E392E15F
S11355200E94021980E00E94421A8AE10E94B50199
S11355308FB7F894EF2DFF27EE0FFF1FEE5EFD4FA0
S11355401183008320912F02FF2011F02B7F01C0D3
S11355502D7F20932F0210923A0299278FBF42C0C9
S113556020917D03812F8223C1F0E92FFF27EE0FC5
S1135570FF1FE75BF74F4081518111821082812F19
S11355808095282320937D03992339F463E0CA018D
S11355900E941D0E110F91E0E3CF9F5F983010F52C
S11355A0110FDECF80911802E82FFF27EE0FFF1FA7
S11355B0E75BF74F6081718141E00E94580E12C091
S11355C00E9458030FC02E7F20933A0421E09927AC
S11355D08FBF222339F084E392E10E9402198BE108
S11355E00E94B50122960FB6F894DEBF0FBECDBF60
S11355F0DF91CF911F910F91FF90EF90DF90CF90AB
S1135600BF90AF909F908F907F906F9008958091FE
S11356104B088F3FB1F0282F3327F901E156FD4F96
S1135620808180934B088F3F11F480930E0B8FEF92
S113563080832F3F31F0822F0E94912281E090E0FD
S1135640089580E090E00895CFEFD1E2DEBFCDBFB2
S1135650EFB6F89414BE88E10FB6F8948093600016
S1135660109260000FBE4CE150E06FEF70E08FE9E4
S113567092E00E94C72F8FEF80934B0880930E0B0C
S113568056985E9854985C9880916F008F7D8093B3
S11356906F00209A289A279A2F980E9A169A8DE8C6
S11356A093E09093940280939302109277038AE597
S11356B08093280381E08093810080E28093B60088
S11356C083E08093B10080918400909185004AE743
S11356D020918400309185002817390708F441503F
S11356E0442311F0C901F4CF9091B2008091B2002B
S11356F08917E1F320918400309185009091B200E4
S11357008091B2008917E1F3809184009091850023
S1135710821B930B4096B5E096958795BA95E1F771
S113572090934D0880934C081092B1008091B10081
S113573080938100809181008093B6001092B20022
S113574010928500109284008FEF87BB87B386BBCD
S11357508091B6008571E1F70A9A099A089A129A1B
S1135760119A109A18B88FEF87B90C981498109260
S11357709500109294008091710081608093710073
S113578080919100887F82608093910010928500BF
S11357901092840080916F00816080936F008091EB
S11357A08100887F8260809381000E94072B882378
S11357B0E1F780E094E090934902809348021092CC
S11357C0520210924A0210924B0210924C02109212
S11357D04D0210924E0210924F02109250021092FB
S11357E0510210923A0410926805E4E5F8E083E36C
S11357F099E0819391938F9628E0E836F207C9F7F0
S1135800AAE0FA2EF092D6021092960212E006E076
S113581060914C0870914D0888279927FCE0660F29
S1135820771F881F991FFA95D1F720E031EE40E0E9
S113583050E00E942030215030402093C400832F38
S113584099278093C5001093C0000093C200109262
S1135850C1002093CC008093CD001093C800009326
S1135860CA001092C90084E490E0909337088093B2
S113587036081092890310928B03F0929B051092C4
S11358807E03109282031092530810922A0B1092F6
S1135890290B109232091092A90410922B0810922D
S11358A02A0884E0809332031092A10510924408E0
S11358B010926D03109237041092360410921F0454
S11358C010921E0410921D0410928602E1E1FBE086
S11358D08BE695E08193919304962BE0E932F207ED
S11358E0C9F78CE08093EC0310926908E2EAF5E0D2
S11358F085ED95E0819391938F9625E0EA3BF2073D
S1135900C9F78CE08093ED03109278038FEF8093B6
S1135910810380E00E941302209100023091010271
S11359202F5F3F4FC901AA27BB278093730390932E
S11359307403A0937503B09376038EE998E0909373
S11359408902809388028F9690938B0280938A02B7
S11359508CEF98E090938D0280938C022FEF3FEFB1
S113596030933B0820933A0830933D0820933C0839
S113597030933F0820933E08309341082093400819
S11359803093430820934208809100020FE613E00D
S1135990C7E3D5E08295807F809347028FEF8093A1
S11359A0D70210922A0210922B0210924E081092E3
S11359B04F081092500810925108109287023093A9
S11359C03108209330081092330810923208109254
S11359D0340810923508109298026AE183E393E048
S11359E00E9455069093800380937F0310932C09A3
S11359F000932B09D0938503C093840310929502DE
S1135A00E0E4F4E010823B9684E0EE3AF807D1F744
S1135A108091B60080628093B6008091B60081FDCB
S1135A20FCCF82E08093B0008091B60080FDFCCF73
S1135A3083E08093B1008091B60083FDFCCF86EEB5
S1135A408093B300809170008260809370000E9404
S1135A5091080E94072B8823E1F78E2D99278FBF89
S1135A6078942FB7F89433278091D1028F5F809375
S1135A70D1022FBF809130038823F1F48091530227
S1135A808823D1F480912F09813049F490E08091EA
S1135A906605882309F491E0992371F002C08530EA
S1135AA059F083E0809353020E94E71685E08093C7
S1135AB030030E94681704C00E9468170E94820382
S1135AC0809124028260809324028FB7F8949927EE
S1135AD020910202309103028FBF3093BB052093C3
S1135AE0BA0580912B028823C1F481E080932B02B4
S1135AF080E890E0A0E0B0E080930D0290930E0265
S1135B00A0930F02B09310020E94F30E40E050E203
S1135B1060E070E082E00E941B0780914A0290914D
S1135B204B02A0914C02B0914D020097A105B10522
S1135B3031F510924A0210924B0210924C021092CC
S1135B404D0210924E0210924F0210925002109287
S1135B5051021092520280E00E94BE190FB7F894CD
S1135B60112780E090E00E9422040FBF0E942B05C1
S1135B7080E00E94421A81E08093850203C080E0A5
S1135B800E94421A81E080938E028FB7F894482FC6
S1135B90552758C080917000992783709070892B85
S1135BA019F4E5E0F0E014C08091B6008A71E1F7E1
S1135BB08091B3009091B200891B8C3038F08091B1
S1135BC0B200853F18F4E3E0F0E002C0E2E0F0E068
S1135BD080916E00867009F580916F008E72E9F4F1
S1135BE0809171008E72C9F40CB407FC16C08091C8
S1135BF0C100887191F48091C900887171F4809119
S1135C00BC0082FD0AC080917A0087FF03C081E056
S1135C1090E005C085E090E002C080E090E023B70A
S1135C208E1708F4E82FFF27EC5FFC4FC895E02D92
S1135C30207F2160E22BE3BF78948895F89483B7A2
S1135C408E7F83BF80914B088F3F09F4A3CF282F09
S1135C503327F901E156FD4F808180934B088F3F34
S1135C6011F480930E0B8FEF80832F3F09F492CFB2
S1135C704FBF822F0E94912288CFACE2B0E0E3E4D0
S1135C80FEE20C944230222E332E442E552E662EE4
S1135C90772E882E992EFE013196A8E01192AA95AE
S1135CA0E9F729823A824B825C826D827E828F82FE
S1135CB09886FE013996B8E01192BA95E9F7A9865B
S1135CC0BA86CB86DC86ED86FE860F87188B8981A3
S1135CD09A81AB81BC8189A79AA7ABA7BCA77C0199
S1135CE08D018FEF9FEFA0E0B0E0E822F9220A23B4
